:020000040800F2
:10000000C80400209D0100081B1900081B130008EC
:100010001919000895040008AF1C00080000000032
:100020000000000000000000000000001F19000890
:1000300097040008000000001D190008211900089D
:10004000B7010008B7010008B7010008B7010008B0
:10005000B7010008B7010008B7010008B7010008A0
:10006000B7010008B7010008B7010008B701000890
:10007000B7010008B7010008B7010008B701000880
:10008000B7010008B7010008B7010008B701000870
:10009000B7010008B7010008B7010008B701000860
:1000A000B7010008C5190008B7010008B70100082A
:1000B000D1190008B7010008B7010008B70100080E
:1000C000B7010008B7010008B7010008B701000830
:1000D000B7010008B7010008B7010008B701000820
:1000E000B7010008B7010008B7010008B701000810
:1000F000B7010008B7010008B7010008B701000800
:10010000B7010008B7010008B7010008B7010008EF
:10011000B7010008B7010008B7010008B7010008DF
:10012000B7010008B7010008B7010008B7010008CF
:10013000B7010008B7010008B7010008B7010008BF
:10014000B7010008B7010008B7010008B7010008AF
:10015000B7010008B7010008B7010008B70100089F
:10016000B7010008B7010008B7010008B70100088F
:10017000B7010008B7010008B7010008000000003F
:10018000B7010008B7010008DFF80CD000F070F9E3
:1001900000480047F11C0008C804002006488047BA
:1001A00006480047FEE7FEE7FEE7FEE7FEE7FEE75C
:1001B000FEE7FEE7FEE7FEE7A9190008890100084F
:1001C0002DE9F05F0546002092469B46884606468C
:1001D000814640241BE0284641464746224600F01F
:1001E000D9F853465A46C01A914110D311461846C1
:1001F000224600F0C0F82D1A67EB01084F46224650
:100200000120002100F0B7F817EB00094E41201E35
:10021000A4F10104DFDC484631462A464346BDE8E6
:10022000F09FD2B201E000F8012B491EFBD27047CB
:100230000022F6E710B513460A4604461946FFF7B2
:10024000F0FF204610BD2DE9FE4F81EA030404F0C3
:10025000004421F0004100944FF0000B23F00043D4
:1002600050EA01045ED052EA03045BD0C3F30A549F
:10027000C1F30A552C44A4F2F3340194A0FB0254B8
:10028000C1F3130141F48011C3F3130343F480134A
:1002900001FB024400FB034E840A970A44EA81549E
:1002A00047EA8357A4FB076802958D0A05FB07857B
:1002B0004FEA932C04FB0C542705029D4FEA065885
:1002C00047EA1637B5EB08056EEB070C870E920E62
:1002D00047EA811742EA8312A7FB0201B6EB0B0142
:1002E00064EB00042B0D43EA0C335E1844EB1C5006
:1002F000DA465146E7FB0201C5F313044FEA0B331C
:1003000043EA14534FEA0432019C43EA0603A4F182
:100310000C040294009CCDE900B400F05AF803B03C
:10032000BDE8F08F00200146F9E70EB540F23341F9
:1003300002910021CDE900110A460B4600F049F870
:1003400003B000BDC1F30A5210B5C1F3130140F26E
:10035000FF3341F480119A4201DA002010BD40F2CF
:1003600033439A42A2F2334203DC524200F012F8C5
:1003700010BD904010BD202A04DB203A00FA02F1A3
:10038000002070479140C2F1200320FA03F3194383
:1003900090407047202A04DB203A21FA02F0002125
:1003A000704721FA02F3D040C2F120029140084385
:1003B0001946704710B5141E73F1000408DA401C8A
:1003C00041F1000192185B411A4301D120F0010074
:1003D00010BD2DE9F04D92469B4611B1B1FA81F264
:1003E00002E0B0FA80F220329046FFF7C4FF0446E4
:1003F0000F4640EA0A0041EA0B0153465A460843B9
:1004000013D0114653EA010019D0C8F140025046FA
:10041000FFF7C0FF05460E46504659464246FFF7D5
:10042000AAFF084305D0012004E020463946BDE874
:10043000F08D0020054346EAE0762C4337430A98C6
:100440006305E40AA0EB08000022FD0A44EA4754D1
:100450000A3002D500200146E9E70105101969417B
:10046000DDE9084500196941BDE8F04DA2E700004B
:10047000064C074D06E0E06840F0010394E80700F1
:1004800098471034AC42F6D3FFF782FEC81D00082F
:10049000E81D0008FEE7704770B5044600F0F6F866
:1004A0000546601C02D004480078044400F0EEF8D1
:1004B000401BA042FAD370BD340000202DE9F84F54
:1004C00000224FF0010803254FF00F0E0B6808FAC9
:1004D00002F42340A3426ED14E68012E05D0022EB5
:1004E00003D0112E01D0122E12D186684FEA420C91
:1004F00005FA0CF7BE43CF6807FA0CF7374387605D
:100500004668A6430C79C4F3001494403443446015
:10051000C668570005FA07FC8C6826EA0C06BC4042
:100520003443C4604C68022C01D0122C13D1D4087F
:1005300000EB8404A346D4F8209054074FEAD46A11
:100540000EFA0AF629EA06090E6906FA0AF646EADA
:100550000906CBF8206006680C7926EA0C0604F040
:100560000304BC40344304604C68E40065D5364C59
:10057000266846F480462660246822F0030604F4C8
:1005800080440094314C3444A446D4F8084896077B
:10059000370F0EFA07F6B4432D4EB04201D10026B4
:1005A00024E02C4EB04201D101261FE02A4EB04279
:1005B00002D102261AE040E0284EB04201D10326C3
:1005C00014E0274EB04201D104260FE0254EB04280
:1005D00001D105260AE0244EB04201D1062605E0ED
:1005E000224EB04201D1072600E00826BE40264335
:1005F000CCF808681E4E34684F689C43FF0300D552
:100600001C4334601A4C241D26684F689E43BF0368
:1006100000D51E432660164E083634684F689C434A
:10062000FF0200D51C433460114E0C3634684F680D
:100630009C43BF0200D51C433460521C102AFFF4B7
:1006400045AFBDE8F88F000044380240003001405B
:10065000000002400004024000080240000C02407A
:10066000001002400014024000180240001C02402A
:10067000003C0140426931EA020200D10904816173
:1006800070470AB1816170470904FBE7014880683F
:10069000704700003400002002488168027811444D
:1006A00081607047340000200B4810B5016841F4A8
:1006B00000710160016841F480610160016841F4EA
:1006C00080710160032000F06FF8002000F006F850
:1006D00000F024F8002010BD003C024070B50D4D24
:1006E00004464FF47A712878B1FBF0F00A490968A2
:1006F000B1FBF0F000F012FB48B9102C07D2002239
:100700002146501E00F030F800206C6070BD0120C2
:1007100070BD000034000020400000200A4808B5E9
:10072000016841F480410160006800F4804000905D
:100730000548001F016841F080510160006800F029
:100740008050009008BD000044380240002809DBBA
:1007500000F01F02012191404009800000F1E020DB
:10076000C0F8001170470000F0B40E4B1B680C4637
:10077000C3F30223C3F10705042D00D90425191D75
:10078000072901D2002300E0DB1E012606FA05F14D
:10079000491E214099409E40761E16403143F0BCD0
:1007A00001F086BA0CED00E0064900F00702086887
:1007B0004FF6FF03184040EA0220034A1043086046
:1007C000704700000CED00E00000FA052DE9F0474D
:1007D0000E46050065D0DFF81481D8F80000F7B2A6
:1007E00000F00F00B04207D288F80070D8F800007F
:1007F00000F00F00B04254D128683D4C810712D55B
:10080000400703D5206840F4E050206028780007B6
:1008100003D5206840F4604020602068A96820F07B
:10082000F000084320602878C0072DD03049686860
:100830000839012812D0022813D0032811D00968E2
:10084000890700292DDA216821F003010143216085
:10085000FFF71CFF814641F2883A0EE009688903E0
:10086000EFE709688901ECE7FFF710FFA0EB09014A
:10087000514502D90320BDE8F0872068696800F07F
:100880000C00B0EB810FEFD1D8F80010404601F01A
:100890000F01B14207D90770006800F00F00B042A5
:1008A00001D00120E7E72878400705D52068E968EE
:1008B00020F4E050084320602878000706D520681F
:1008C000296920F4604040EAC100206000F048F847
:1008D0002168084AC1F30311515CC8400649086009
:1008E00006480068FFF7FAFE0020C4E7003C02401B
:1008F00008380240B01D00084000002038000020E9
:100900000F2202600C4A136803F00303436013686C
:1009100003F0F0038360136803F4E053C3601268CC
:100920004FF4E05303EAD20202610448006800F089
:100930000F0008607047000008380240003C024089
:100940000448054900680968044AC1F38221515CE2
:10095000C84070474000002008380240C01D000811
:10096000154810B5006810F00C02144813D041105F
:10097000042A0FD0082A0ED10F4C241F22682368A6
:1009800002F03F025B0207D52068C0F38810A0FB8D
:10099000010106E0084610BD2168C1F38811A1FBE2
:1009A00000010023FFF70CFC2168C1F30141491C41
:1009B0004900B0FBF1F010BD083802400024F400FB
:1009C0002DE9F84F04006ED02078DFF83C93C00783
:1009D000A9F104054AD009F104000168C1F38101BD
:1009E000012908D00068C0F3810002280AD1D9F893
:1009F0000000400206D52868800337D560680028CB
:100A0000E1D033E06068B0F5803F10D0B0F5A02FA2
:100A1000286810D020F480302860286820F48020D6
:100A200028606068A8B1FFF731FE06460DE028682F
:100A300040F48030F4E740F480202860F7E700BFFE
:100A4000FFF724FE801B642873D828688003F7D53D
:100A50000CE0FFF71BFE064605E000BFFFF716FEA1
:100A6000801B6428F0D828688003F7D42078DFF84A
:100A70009C8280074FF0000A3ED5A348001D016804
:100A800011F00C0F08D00068C0F3810002280BD1D0
:100A9000D9F80000400207D42868800716D5E0681E
:100AA000012800D112E02BE1E068B8B10120C8F8BC
:100AB0000000FFF7EBFD064605E000BFFFF7E6FD8F
:100AC000801B0228C0D828688007F7D528682169CC
:100AD00020F0F80040EAC10028600DE0C8F800A04E
:100AE000FFF7D4FD064604E0FFF7D0FD801B022887
:100AF0001FD828688007F7D42078000722D5824EB7
:100B000083486169703671B101210160FFF7BEFD54
:100B1000074604E0FFF7BAFDC01B022809D8306879
:100B20008007F7D50EE0C0F800A0FFF7AFFD07463D
:100B300005E082E0FFF7AAFDC01B02287DD83068DF
:100B40008007F7D42078400768D5DFF8BCB10027CC
:100B50000BF13C0BDBF80000C0000BD4DBF80010FD
:100B600041F08051CBF80010DBF80000012700F0C5
:100B700080500090674E3068C00510D4306840F453
:100B800080703060FFF782FD009005E0FFF77EFD8A
:100B90000099401A022850D83068C005F6D55A4E40
:100BA000A0686C3601280FD00528306810D020F0DE
:100BB00001003060306820F004003060A068B8B1F7
:100BC000FFF764FD00900FE0306840F00100F4E7AB
:100BD00040F004003060F7E7FFF758FD0099411A34
:100BE00041F28830814266D830688007F4D50EE043
:100BF000FFF74CFD009007E0FFF748FD0099411A10
:100C000041F28830814256D830688007F4D42FB141
:100C1000DBF8001021F08051CBF80010A069C8B3B8
:100C20003949091D0968C1F3810102294AD0022806
:100C3000504607D0C8F8600000E03CE0FFF726FD12
:100C400004463BE04746C8F86000FFF71FFD064634
:100C500005E000BFFFF71AFD801B02282BD828688B
:100C60008001F7D4D4E907010843A16A2A4A490858
:100C700002EB0141626A41EA8211084394F82C10A8
:100C800040EA0161C9F8001001203866FFF7FEFC58
:100C9000044606E036E000BFFFF7F8FC001B022820
:100CA00009D828688001F7D52CE000BFFFF7EEFCDB
:100CB000001B022802D90320BDE8F88F28688001B4
:100CC000F4D41FE00128F7D0D9F80000E26900F45D
:100CD0008001914214D1226A00F03F0191420FD16C
:100CE00047F6C071626A0140914209D1A26A00F4DC
:100CF0004031914204D1E16A00F07060884201D035
:100D00000120D9E70020D7E704380240000047421D
:100D1000800E4742007000400000FFFF10B5401EEB
:100D2000B0F1807F01D3012010BD4FF0E02460615D
:100D30000F21601700F0BCFF0020A0610720206198
:100D4000002010BD7047704710B590F83C20012A74
:100D500022D0012280F83C20CA688C6822F44072BC
:100D600022434C6822F4806222430C6822F4006221
:100D700022430C6922F4805222434C6922F400522F
:100D80002243C969002322F480420A4301684A646D
:100D900080F83C30002010BD022010BD70B590F8E6
:100DA0003C20012A32D0012480F83C40022280F805
:100DB0003D2003685A689D6822F070060A68324335
:100DC0005A60134B02689A4214D0B2F1804F11D08E
:100DD000104B9A420ED0104B9A420BD00F4B9A42B6
:100DE00008D00F4B9A4205D00E4B9A4202D00E4BC0
:100DF0009A4204D1496825F080031943916080F834
:100E00003D40002180F83C10084670BD022070BDB6
:100E1000000001400004004000080040000C0040B9
:100E200000040140004001400018004010B50400DB
:100E300003D094F83D0010B107E0012010BD002060
:100E400084F83C00204600F00DF8022084F83D00B4
:100E5000211D206800F0C2FD012084F83D00002023
:100E600010BD000008B50068154988420FD115482B
:100E7000016841F0010101600068002200F00100FA
:100E8000009011461920FFF76FFC192012E0B0F115
:100E9000804F13D10B48001F016841F00101016030
:100EA0000068002200F00100009011461C20FFF7AE
:100EB0005BFC1C20BDE80840FFF748BC08BD0000F3
:100EC0000000014044380240022180F83D100168D2
:100ED0008A6802F00702062A03D00A6842F001027B
:100EE0000A60012180F83D10002070470168CA683F
:100EF00042F00102CA600068816801F0070106291A
:100F000003D0016841F0010101600020704770B515
:100F1000044690F83C00012817D0012584F83C5085
:100F2000022084F83D002068826822F0770222F4D3
:100F30007F4282600868502830D00DDC20284DD0D8
:100F400005DC98B310283BD148E0022070BD302862
:100F500044D0402834D139E0602828D0702806D009
:100F6000B0F5805F2CD0B0F5005F29D10AE0CB68E6
:100F7000D1E90121206800F0A2FD2068816841F0DC
:100F8000770109E0CB68D1E90121206800F097FDE5
:100F90002068816841F48041816011E0CA68496835
:100FA000206800F061FE5021206807E016E0CA6862
:100FB0004968206800F069FE6021206800F089FD22
:100FC00084F83D50002084F83C0070BDCA68496830
:100FD000206800F049FE40212068EFE722680146C2
:100FE0001046EBE7704770B50446006801694FF0A2
:100FF0000005C943890715D4C168C943890711D4BD
:10100000E91E016101202077206880698007204661
:1010100002D0FFF7E7FF04E000F0C2F8204600F03E
:1010200044F9257720680169C943490717D4C16885
:10103000C943490713D46FF00401016102202077EE
:101040002068806910F4407F204602D0FFF7CAFF75
:1010500004E000F0A5F8204600F027F92577206885
:101060000169C943090716D4C168C943090712D4E5
:101070006FF008010161042020772068C0698007B3
:10108000204602D0FFF7AEFF04E000F089F82046CA
:1010900000F00BF9257720680169C943C90617D408
:1010A000C168C943C90613D46FF01001016108205B
:1010B00020772068C06910F4407F204602D0FFF7F7
:1010C00091FF04E000F06CF8204600F0EEF8257780
:1010D00020680169C943C90708D1C168C943C90764
:1010E00004D1891E0161204600F002F920680169DF
:1010F000C943090609D4C168C943090605D46FF07C
:10110000800101612046FFF71DFE20680169C94387
:10111000490609D4C168C943490605D46FF04001A6
:101120000161204600F0F8F820680169C94389068A
:101130000BD4C168C943890607D46FF0200101614F
:101140002046BDE87040FFF7FEBD70BD10B586B00B
:10115000044614216846FFF76BF80E492068884260
:1011600016D10D480021026842F0010202600068B9
:1011700000F0010005904FF4807000900220CDE94E
:1011800001010120CDE9031069460448FFF796F9F3
:1011900006B010BD0000014030380240000002409F
:1011A000704770B5044690F83C000D4601280DD0FC
:1011B000012684F83C60022084F83D0042B1042AF4
:1011C00018D0082A2AD00C2A4DD139E0022070BD4F
:1011D000206800F087FC2068816941F00801816186
:1011E0002068816921F004018161206881692A6990
:1011F000114311E0206800F0A5FC2068816941F4EA
:10120000006181612068816921F4806181612068C9
:1012100081692A6941EA0221816124E0206800F0A5
:10122000C7FC2068C16941F00801C1612068C1693B
:1012300021F00401C1612068C1692A69114311E0EC
:10124000206800F0E9FC2068C16941F40061C161D7
:101250002068C16921F48061C1612068C1692A697F
:1012600041EA0221C16184F83D60002084F83C001D
:1012700070BD10B5040003D094F83D0010B107E034
:10128000012010BD002084F83C00204600F00CF83E
:10129000022084F83D00211D206800F09FFB012002
:1012A00084F83D00002010BD7047704710B504461B
:1012B0000068012200F0F6FB0B492068884202D04A
:1012C0000A49884203D1416C41F4004141642068DD
:1012D000816801F00701062903D0016841F001018E
:1012E0000160002010BD000000000140000401402A
:1012F0000068B0F1804F09D105488189491C81817E
:10130000C189491CC18103490088486370470000B6
:1013100024000020000001407047FEE72DE9F0475F
:101320003D484FF47A7501683C4C09074FF00106BF
:101330004FF0000708D40121491CA942FCD30168E1
:10134000090708D4668006E06188012903D1678017
:1013500021886431218080460068DFF8C490C0068F
:1013600009D40120401CA842FCD3D8F80000C006D4
:101370000CD4A6800AE0A088012807D18103A780A9
:101380004846FFF777F9208864382080D8F80000B5
:10139000800609D40120401CA842FCD3D8F80000E4
:1013A000800609D4E68007E0E088012804D14103E3
:1013B000E7804846FFF75EF9D8F80000400609D4F8
:1013C0000120401CA842FCD3D8F80000400609D4F4
:1013D000268107E02089012804D10103278148469E
:1013E000FFF748F9D8F800104046090609D4012152
:1013F000491CA942FCD30068000600D46681BDE800
:10140000F08760890128FAD1C10267814846BDE8AA
:10141000F047FFF72FB90000100C02402400002015
:10142000000C02400121084600F0F4B82DE9F05FFD
:101430000AAC94E8E05F1E4CA061A180E280E36109
:1014400025816681A781A4F80E80C4F82090A4F8B5
:1014500010A0A4F812B0A4F814C0A4F816E000F08C
:1014600049F8012020703820A0701420FFF714F8EC
:10147000302000F04FF90520FFF70EF8302000F083
:1014800049F90120FFF708F8302000F043F9012066
:10149000FFF702F8382000F03DF90F2000F03AF98C
:1014A000012000F037F9BDE8F05F0220FEF7F4BF3D
:1014B0000000002010B5094C0122E188A069FFF767
:1014C000E0F80A2000F060F80022E188A069FFF748
:1014D000D8F8BDE810403C2000F056B800000020CD
:1014E000020003488188806900D00122FFF7C9B853
:1014F0000000002000B587B005A96846FFF700FA94
:101500000398A8B3FFF71CFA5FEA4000FEF70DFF4F
:101510009FED191B53EC112BFEF795FEFEF712FF02
:1015200017490A6842F002020A6016490A6822F066
:1015300010020A600A6822F001020A600A6822F0BA
:1015400004020A600A6842F008020A600D49283164
:10155000401E08600920091D08600A490120143155
:101560000860081F016821F00101016007B000BD9B
:10157000FFE7FFF7E5F9C9E78DEDB5A0F7C6B03E87
:1015800040380240000400400949401E08600848F5
:101590001C38016821F00101016005492C390A68F5
:1015A00042F001020A600168C907FCD070470000E0
:1015B0002C04004010B5012000F0ACF8BDE810404C
:1015C0000320FEF769BF00000349487820F00100BE
:1015D000487000F09FB800000000002003494878E0
:1015E00020F00200487000F095B8000000000020D4
:1015F00070B50646002409E00120FFF771FF284678
:1016000000F016F8641CE4B2102C02D2355D002DF7
:10161000F2D170BD491E01F00F01012804D041F044
:10162000C00000BF00F076B841F08000FAE700008B
:101630002DE9F84F0209364C02F0080302F0040BC2
:10164000217802F0020902F0010700F0080A00F018
:10165000040600F0020500F00108009301292FD0D4
:10166000022952D13A46218A206AFFF70AF84A46EF
:10167000618A206AFFF705F85A46A18A206AFFF7B7
:1016800000F8E18A009A206AFEF7FBFFFFF712FFDD
:101690004246218A206AFEF7F4FF2A46618A206AC0
:1016A000FEF7EFFF3246A18A206AFEF7EAFF5246B4
:1016B000E18A206AFEF7E5FFBDE8F84FFFF7FABEC2
:1016C00042462189E069FEF7DCFF2A466189E0692C
:1016D000FEF7D7FF3246A189E069FEF7D2FF5246F6
:1016E000E189E069FEF7CDFF3A46218A206AFEF7DC
:1016F000C8FF4A46618A206AFEF7C3FF5A46A18A9C
:10170000206AFEF7BEFF009AD2E7BDE8F88F00001E
:101710000000002010B504460020FFF7E1FE20463F
:10172000BDE81040FFF784BF2DE9F04786B01421D3
:101730006846FEF77DFD34480024016841F0100141
:101740000160016801F010010591016841F080011C
:101750000160016801F080010591016841F002011A
:101760000160016801F002010591016841F0080182
:101770000160016801F008010591016841F0010173
:1017800001600068DFF8848000F00100059000220D
:10179000FF214046FEF775FFDFF8749040F60446DF
:1017A000002231464846FEF76CFFDFF868A04FF490
:1017B0007847002239465046FEF763FFFF2000902D
:1017C0000125CDE90154694640460394FEF776FEB3
:1017D0000096CDE90154694648460394FEF76EFE33
:1017E0000097CDE90154694650460394FEF766FE22
:1017F000F820CDE90004694650460294FEF75EFEEB
:1018000006B0BDE8F087000030380240001002400A
:1018100000040240000C024010B596B000240F9462
:1018200010941194129413941C2108A81494FEF798
:10183000FFFC20216846FEF7FBFC21481F490160A0
:10184000A721C0E9011440F2E731C0E90314802167
:10185000C0E90541FFF7EAFA4FF480500F900FA955
:101860001748FFF754FB1648FFF703FD2020CDE98A
:10187000130413A91248FFF791FA60200890F92089
:10188000CDE909040420CDE90B400D94002208A9FC
:101890000B480E94FFF785FC00944FF40050CDE9FF
:1018A0000440029401940394694605480794FFF7A5
:1018B0004BFA0348FFF74AFC16B010BD0000014088
:1018C0004400002010B586B0002412480094019412
:1018D0000294039404944FF08041059401605321D5
:1018E000C0E9011440F2E731C0E9031480218161AD
:1018F000FFF79CFA4FF48050009069460548FFF7C7
:1019000006FB2020CDE9040404A90248FFF746FAAB
:1019100006B010BD84000020FEE770477047704796
:10192000FEF7BABE30B593B030216846FEF780FCB2
:1019300014210CA8FEF77CFC19480025016841F031
:1019400080510160006800F08050119015480168D6
:1019500041F4804101600068022400F4804011904D
:1019600001200090000401908001CDE9064008AA02
:101970000420A82182E813000B906846FFF720F8A6
:101980000CA90F2081E831004FF4A0500F90E00225
:10199000109005210CA8FEF719FF13B030BD000010
:1019A00040380240007000400548016841F4700171
:1019B000016003494FF00060803908607047000003
:1019C00088ED00E00148FFF70EBB00004400002056
:1019D0000148FFF708BB000084000020F0B5026852
:1019E000254C264D264E274F274B4FF0804CA042CA
:1019F00009D0604507D0A84205D0B04203D0B84214
:101A000001D0984204D122F0700E4A6842EA0E02D8
:101A1000A0421BD0604519D0A84217D0B04215D0C3
:101A2000B84213D0984211D0184DA8420ED0184D8C
:101A3000A8420BD0174DA84208D0174DA84205D098
:101A4000164DA84202D0164DA84203D122F440758B
:101A5000CA682A434D6922F080022A4302608A68DC
:101A6000C2620A688262A04201D0984201D109692B
:101A7000016301214161F0BD00000140000400400C
:101A800000080040000C00400004014000400140FC
:101A9000004401400048014000180040001C004084
:101AA0000020004010B501F01F030121046A994095
:101AB0008C430462016A9A401143016210BD10B563
:101AC000846842EA032224F47F440A43224382606A
:101AD00010BD826822F070020A4342F00701816063
:101AE00070470000F0B5026A22F001020262036A48
:101AF00042688469124E24F073050C682C4323F06D
:101B000002058B682B430D4DA84201D0B04205D190
:101B100023F00807CB683B4323F00403A84201D01D
:101B2000B04205D14D6922F4407215438A692A43B7
:101B300042608461496841630362F0BD0000014076
:101B400000040140F0B5026A22F010020262026A4B
:101B5000436884690D6824F4E64444EA05248D68EA
:101B600022F0200242EA05120F4D104EA84201D089
:101B7000B04206D1CF6822F0800242EA071222F07A
:101B80004002A84201D0B04207D14D6923F440631E
:101B900043EA85038D6943EA8503436084614968AC
:101BA00081630262F0BD00000000014000040140BA
:101BB000F0B5026A22F480720262026A4368C46964
:101BC00022F4007224F073050C68124E2C438D68C9
:101BD00042EA05220E4DA84201D0B04206D1CF689C
:101BE00022F4006242EA072222F48062A84201D075
:101BF000B04207D14D6923F4405343EA05138D6980
:101C000043EA05134360C4614968C1630262F0BDE1
:101C1000000001400004014030B5026A22F4805205
:101C20000262046A4268C3690D6823F4E64343EA2A
:101C300005238D6824F4005444EA0534084DA84275
:101C400002D0084DA84204D14D6922F4804242EAF4
:101C500085124260C36149680164046230BD0000BE
:101C6000000001400004014010B5036A046A24F03A
:101C700001040462846924F0F00444EA021423F0AD
:101C80000A020A438461026210BD10B5036A23F0A0
:101C9000100303628369046A23F4704343EA023247
:101CA00024F0A00343EA01118261016210BDFEE746
:101CB0000907090E002804DB00F1E02080F8001479
:101CC000704700F00F0000F1E02080F8141D70470D
:101CD00002E008C8121F08C1002AFAD170477047F5
:101CE000002001E001C1121F002AFBD17047000053
:101CF0008AB0FEF7D9FCFFF715FEFFF715FDFFF7D9
:101D0000E1FDFFF789FD0DF1140C80234022202115
:101D100010208CE80F0008200421CDE902100222D7
:101D20000120CDE900020A46174BC102049317486F
:101D3000FFF77CFBFFF776FB15A0FFF759FCFFF7D9
:101D400043FCFFF74BFC1648FFF7BEF81448FFF7BB
:101D5000CDF8134800214038FFF7A8FA114C4FF492
:101D60007A760025A089142802D1A581FFF7D6FA3A
:101D7000E089B042F6D1E581FFF71CFCFFF752FB8A
:101D800009A0FFF735FCEDE7001002400004024017
:101D90004E495445434820547261696E696E67002C
:101DA00084000020240000204E4954454348000090
:101DB00000000000000000000102030406070809FB
:101DC0000000000001020304E81D000800000020DC
:101DD00044000000D01C00082C1E00084400002015
:101DE00084040000E01C0008010F3800000000001F
:101DF00000000000000000000000000000000000E3
:101E0000000000000000000000000000FA000000D8
:101E100000000000000000000000000001000000C1
:0C1E200010000000000000000024F4008E
:040000050800018965
:00000001FF
