:020000040800F2
:10000000F80600209D010008D3250008771F00088E
:10001000D12500084D0600088B29000800000000CB
:10002000000000000000000000000000D7250008CC
:100030001907000800000000D5250008D925000890
:10004000B7010008B7010008B7010008B7010008B0
:10005000B7010008B7010008B7010008B7010008A0
:10006000B7010008B7010008B7010008B701000890
:10007000B7010008B7010008B7010008B701000880
:10008000B7010008B7010008B7010008B701000870
:10009000B7010008B7010008B7010008B701000860
:1000A000B70100087D260008B7010008B701000865
:1000B00089260008B7010008B7010008B701000849
:1000C000B7010008B7010008B7010008B701000830
:1000D000B7010008B7010008B7010008B701000820
:1000E000B7010008B7010008B7010008B701000810
:1000F000B7010008B7010008B7010008B701000800
:10010000B7010008B7010008B7010008B7010008EF
:10011000B7010008B701000895260008B7010008DC
:10012000510600085D06000869060008B7010008CE
:10013000B7010008B7010008B7010008B7010008BF
:10014000B7010008B7010008B7010008B7010008AF
:10015000B7010008B7010008B7010008B70100089F
:10016000B7010008B7010008B7010008B70100088F
:10017000B7010008B7010008B7010008000000003F
:10018000B7010008B7010008DFF80CD000F070F9E3
:1001900000480047CD290008F8060020064880479F
:1001A00006480047FEE7FEE7FEE7FEE7FEE7FEE75C
:1001B000FEE7FEE7FEE7FEE761260008890100088A
:1001C0002DE9F05F0546002092469B46884606468C
:1001D000814640241BE0284641464746224600F01F
:1001E000D9F853465A46C01A914110D311461846C1
:1001F000224600F0C0F82D1A67EB01084F46224650
:100200000120002100F0B7F817EB00094E41201E35
:10021000A4F10104DFDC484631462A464346BDE8E6
:10022000F09FD2B201E000F8012B491EFBD27047CB
:100230000022F6E710B513460A4604461946FFF7B2
:10024000F0FF204610BD2DE9FE4F81EA030404F0C3
:10025000004421F0004100944FF0000B23F00043D4
:1002600050EA01045ED052EA03045BD0C3F30A549F
:10027000C1F30A552C44A4F2F3340194A0FB0254B8
:10028000C1F3130141F48011C3F3130343F480134A
:1002900001FB024400FB034E840A970A44EA81549E
:1002A00047EA8357A4FB076802958D0A05FB07857B
:1002B0004FEA932C04FB0C542705029D4FEA065885
:1002C00047EA1637B5EB08056EEB070C870E920E62
:1002D00047EA811742EA8312A7FB0201B6EB0B0142
:1002E00064EB00042B0D43EA0C335E1844EB1C5006
:1002F000DA465146E7FB0201C5F313044FEA0B331C
:1003000043EA14534FEA0432019C43EA0603A4F182
:100310000C040294009CCDE900B400F05AF803B03C
:10032000BDE8F08F00200146F9E70EB540F23341F9
:1003300002910021CDE900110A460B4600F049F870
:1003400003B000BDC1F30A5210B5C1F3130140F26E
:10035000FF3341F480119A4201DA002010BD40F2CF
:1003600033439A42A2F2334203DC524200F012F8C5
:1003700010BD904010BD202A04DB203A00FA02F1A3
:10038000002070479140C2F1200320FA03F3194383
:1003900090407047202A04DB203A21FA02F0002125
:1003A000704721FA02F3D040C2F120029140084385
:1003B0001946704710B5141E73F1000408DA401C8A
:1003C00041F1000192185B411A4301D120F0010074
:1003D00010BD2DE9F04D92469B4611B1B1FA81F264
:1003E00002E0B0FA80F220329046FFF7C4FF0446E4
:1003F0000F4640EA0A0041EA0B0153465A460843B9
:1004000013D0114653EA010019D0C8F140025046FA
:10041000FFF7C0FF05460E46504659464246FFF7D5
:10042000AAFF084305D0012004E020463946BDE874
:10043000F08D0020054346EAE0762C4337430A98C6
:100440006305E40AA0EB08000022FD0A44EA4754D1
:100450000A3002D500200146E9E70105101969417B
:10046000DDE9084500196941BDE8F04DA2E700004B
:10047000064C074D06E0E06840F0010394E80700F1
:1004800098471034AC42F6D3FFF782FEA82B000841
:10049000C82B000810B50146806B026C12F0500F9B
:1004A00005D0026CD20626D500F0E0F910BD016C33
:1004B00041F40071016401688A6812F0405F17D14D
:1004C000027EAAB9CA6A12F4700F02D08A68520575
:1004D0000ED44A6822F020024A60016C21F4807137
:1004E0000164016CC90403D4016C41F00101016491
:1004F00000F0BAF910BD806BC26CBDE81040084630
:10050000104710B5806B40210164416C41F004013B
:10051000416400F0ABF910BD10B5806B00F0A5F997
:1005200010BD0000464910B54A6822F440324A60C6
:100530004A6843681A434A6001684A6822F4807234
:100540004A6001684A68036942EA03224A60016816
:100550004A6822F040724A6001684A6883681A4318
:100560004A6001688A6822F400628A6001688A68C9
:10057000C3681A438A60816A6FF07062D142016871
:100580008A6822F070628A6001688A680CD0836A87
:100590001A438A6001688A6822F040528A600168C2
:1005A0008A68C36A1A4301E022F040528A600168F7
:1005B0008A6822F002028A6001688A68037E42EA41
:1005C00043028A6090F82010002901684A680FD021
:1005D00042F400624A6001684A6822F460424A605C
:1005E00001684A68174C436A04EB43331A4301E03D
:1005F00022F400624A600168CA6A22F47002CA6288
:100600000168CA6A838B104C04EB03531A43CA6215
:1006100001688A6822F400728A6001688A6890F82A
:10062000303042EA43228A6001688A6822F480629C
:100630008A6001688A68406942EA8020886010BD4B
:100640000023014000E0FFFF0000F0FFFEE7000094
:10065000014800F0DFBB0000D4010020014800F099
:10066000D9BB000094020020014800F0D3BB000079
:100670003402002001681823CAB2103AB2FBF3F228
:10068000054B6FF30901032A9B5CC36500D9091D63
:100690008165084670470000882B000810B50146A8
:1006A00000208B698A6A4FF0C07453B1B3F5005FC4
:1006B00015D072B1012A0CD0022A0AD0032A09D11E
:1006C00004E01AB1012A06D0022A03D1C96AC9017D
:1006D00000D5012010BDC96AA142FAD010BD002A80
:1006E000F7D0012AF2D0022AF3D0032AF3D010BDAA
:1006F00030B50468256825F48025256004686360AA
:100700008368402B036803D099600068C26030BDE5
:100710009A600068C16030BD7047704778B50024AA
:10072000009490F83C20012A19D0012280F83C2046
:100730000A6807230568092A13D9EE680A3A02EB0A
:10074000420293409E43EE600B788A680A3B03EBBB
:1007500043039A400368DD682A43DA6010E0022010
:1007600078BD2E6902EB420293409E432E610B78C6
:100770008A6803EB43039A4003681D692A431A61A0
:100780004A681F23072A13D205686E6B521E02EBBC
:10079000820293409E436E630B790A885B1E92B27D
:1007A00003EB83039A4003685D6B2A435A6327E097
:1007B00005680D2A12D22E6BD21F02EB82029340E3
:1007C0009E432E630B790A88DB1F92B203EB8303EF
:1007D0009A4003681D6B2A431A6311E0EE6A0D3AD2
:1007E00002EB820293409E43EE620B790A880D3B36
:1007F00092B203EB83039A400368DD6A2A43DA620C
:10080000164B0568144A9D4206D10D68122D03D17E
:10081000556845F48005556005689D4218D10B6800
:10082000102B01D0112B13D1536843F400035360F4
:10083000096810290CD10A490A4A0968B1FBF2F18A
:1008400001EB8101490000E0491E00910029FBD124
:1008500080F83C40002078BD00230140002001408A
:100860004000002040420F0070477047704770B54D
:1008700004004FF0000503D0206C002610B107E003
:10088000012070BD204600F01DF8666484F83C60CD
:10089000206CC00610D4206C20F4885040F0020078
:1008A00020642046FFF73EFE6664206C20F00200C4
:1008B00040F00100206400E0012584F83C602846F7
:1008C00070BD00002DE9F04F87B005461421684641
:1008D000FFF7AEFC5548DFF850C114382B680024F0
:1008E00052490326524ADFF84CB107154FF480589D
:1008F0004FF480494FF4807A634538D10B6843F454
:1009000080730B60096801F480710591016841F002
:1009100004010160016801F004010591016841F0E2
:10092000010101600068009600F001000590CDE92A
:1009300001646946104600F0F1FB0820CDE900068D
:1009400069460294584600F0E9FB3C4E3A4806F1ED
:100950000C03C6E90004B46083E8900734623046B3
:1009600074625AE0AE63B56307B0BDE8F08FDFF89C
:10097000D0C0634527D10B6843F400730B6009684E
:1009800001F400710591016841F004010160006803
:10099000694600F0040005901C20CDE90006029491
:1009A000104600F0BBFB274E234806F10C03303005
:1009B00030604FF00070C6E9010483E890073462AC
:1009C0003046746229E0204A9342CDD10A6842F44D
:1009D00080620A60096801F480610591016841F054
:1009E000010101600068694600F0010005900720E0
:1009F000CDE900060294584600F090FB134E0E48D5
:100A000006F10C02183030604FF08060C6E9010436
:100A100082E8900734623046746200F0CBFA002816
:100A2000A0D0FFF77AFE9DE7002001404438024045
:100A3000000802400000024010640240D40100207F
:100A400000210140340200200022014094020020D5
:100A500018B50021009190F83C20012A07D001220E
:100A600080F83C2002689368DB0702D011E0022086
:100A700018BD936843F0010393602A4A2A4B126819
:100A8000B2FBF3F202EB420200E0521E0092002A97
:100A9000FBD102689368DB0741D0036C40F201642C
:100AA000A34343F48073036453685B0505D5036C6B
:100AB00023F4005343F480530364036CDB0404D534
:100AC000436C23F00603436400E0416480F83C106B
:100AD00016496FF02203136049680068CA0614497A
:100AE00006D088421BD1816811F0405F13D016E018
:100AF0008842F8D00F4A904203D1D1F80423D2069D
:100B0000F1D00D4A90420AD1D1F8041301F01F012F
:100B10001029E8D303E0816841F080418160002022
:100B200018BD00004000002040420F00002301409B
:100B3000002001400021014000220140F8B50E468E
:100B400000210446009190F83C00012807D00120C4
:100B500084F83C0020688368DB0702D011E00220A3
:100B6000F8BD836843F0010383603748374B006862
:100B7000B0FBF3F000EB400000E0401E00900028C6
:100B8000FBD120688368DB075CD0236C40F20165F1
:100B9000AB4343F4807323644068400505D5206C63
:100BA00020F4005040F480502064206CC00404D530
:100BB000606C20F00600606400E0616484F83C1022
:100BC000A16B2448224DC863A16B23480864A16B24
:100BD0002248C86421686FF02200086020684168DC
:100BE00041F0806141602068816841F480718160DA
:100BF0002168134632464C31A06B00F045FA686814
:100C00001749C006206806D088421BD1816811F0C0
:100C1000405F13D016E08842F8D0124A904203D1C8
:100C2000D1F80423D206F1D00F4A90420AD1D1F86C
:100C3000041301F01F011029E8D303E0816841F09B
:100C4000804181600020F8BD4000002040420F003C
:100C50000023014095040008190500080305000859
:100C6000002001400021014000220140704770B582
:100C70004379012B1AD001264671022303710568BE
:100C80002C6840F6FE7393409C43D1E900310B433E
:100C9000934023432B6001680B68C0249440A34316
:100CA0000B60067100214171084670BD022070BDC5
:100CB000704770B504460068416B4FF00405890425
:100CC0000ED52571216941F001012161E9024163DD
:100CD0002068016821F4805101602046FFF7E8FF99
:100CE0002068416B890011D52571216941F002010D
:100CF00021614FF0005141632068016821F080516B
:100D000001602046BDE87040FFF7B0BF70BD70B510
:100D1000040003D02079002510B105E0012070BD4A
:100D20006571204600F008F802202071256101203D
:100D30002071002070BD000010B586B0044614215B
:100D40006846FFF775FA15492068884224D114488F
:100D50000021026842F000520260006800F000507A
:100D600005900F481038026842F0010202600068E6
:100D700000F001000590302000900320CDE9010132
:100D80006946084800F0CAF900221146362000F0F2
:100D900015FB362000F004FB06B010BD00740040C7
:100DA000403802400000024030B54279012A16D096
:100DB000012242710223037103681D6802FA01F4E3
:100DC00025431D60002901680B680AD00C6803F4F4
:100DD000802304F46014B3F5802F0FD015E00220B7
:100DE00030BD0C6803F0040304F03804042B0CD16C
:100DF000382C0AD14B6843F0010305E0B4F5601FBD
:100E000003D14B6843F002034B6002710021417132
:100E1000084630BD2DE9F84304464FF00009CDF8EF
:100E2000009063484FF41651A56D0068B0FBF1F7D0
:100E30002E6894F85C10082000FA01F131420FD0BE
:100E400021680A6852070BD50A6822F004020A607A
:100E500094F85C108840A860606D40F00100606507
:100E600094F85C104FF0010808FA01F0304208D005
:100E700021684969090604D5A860606D40F0020048
:100E8000606594F85C1004208840304208D02168E6
:100E90000968890704D5A860606D40F004006065AA
:100EA00094F85C1010208840304218D021680968FE
:100EB000090714D5A86020680168490304D50068B3
:100EC000000308D5A16C07E00168C90503D40168D7
:100ED00021F008010160216C09B12046884794F88F
:100EE0005C1020208840304231D021680968C90652
:100EF0002DD5A86094F8350005282068016806D033
:100F0000490347D5006800031DD4616C1CE021F043
:100F1000160101602068416921F080014161206C67
:100F200008B9A06C20B12068016821F008010160B7
:100F300094F85C103F208840A86084F8349084F8CE
:100F40003580216D1FE0E16B09B120468847606D57
:100F500000282BD0606DC00714D0052084F8350020
:100F60002068016821F0010101600098401C009098
:100F7000B84203D820680068C007F6D184F83490DE
:100F800084F83580E16C002910D001B02046BDE81E
:100F9000F04308470168C905D5D4016821F0100164
:100FA000016084F8349084F83580CCE7BDE8F8839C
:100FB000400000202DE9F041044600F091F906467A
:100FC0005CB1002584F83450022084F83500206894
:100FD000016821F0010101600DE00120BDE8F08110
:100FE00000F07EF9801B052805D9202060650320CC
:100FF00084F83500F2E720680068C007F0D1226865
:10100000116820480140D4E901031843D4E90336AC
:101010003343184363691843A3691843E3691843CA
:10102000236A18430843616A042903D1D4E90B13E6
:1010300019430843106020684069666A20F0070180
:1010400030460E43012704280CD1A06A0643E06A0B
:1010500040B12046FFF722FB20B14020606584F8B4
:101060003570BAE7206846612046FFF703FB94F825
:101070005C203F2191408160656584F835700020D7
:10108000ACE700003F8010F02DE9F0410446866D8A
:1010900090F83400002501280DD0012084F8340098
:1010A00094F835700020012F07D084F83400022511
:1010B0002846BDE8F0810220FBE7022784F835705E
:1010C00060652046FFF714FB94F85C103F208840D1
:1010D000B0602068016841F016010160206C20B109
:1010E0002068016841F0080101602068016841F052
:1010F00001010160DCE7000070B5044600F0F0F883
:101100000546601C02D004480078044400F0E8F86A
:10111000401BA042FAD370BD340000202DE9F84FE7
:1011200000224FF0010803254FF00F0E0B6808FA5C
:1011300002F42340A3426ED14E68012E05D0022E48
:1011400003D0112E01D0122E12D186684FEA420C24
:1011500005FA0CF7BE43CF6807FA0CF737438760F0
:101160004668A6430C79C4F30014944034434460A9
:10117000C668570005FA07FC8C6826EA0C06BC40D6
:101180003443C4604C68022C01D0122C13D1D40813
:1011900000EB8404A346D4F8209054074FEAD46AA5
:1011A0000EFA0AF629EA06090E6906FA0AF646EA6E
:1011B0000906CBF8206006680C7926EA0C0604F0D4
:1011C0000304BC40344304604C68E40065D5364CED
:1011D000266846F480462660246822F0030604F45C
:1011E00080440094314C3444A446D4F8084896070F
:1011F000370F0EFA07F6B4432D4EB04201D1002648
:1012000024E02C4EB04201D101261FE02A4EB0420C
:1012100002D102261AE040E0284EB04201D1032656
:1012200014E0274EB04201D104260FE0254EB04213
:1012300001D105260AE0244EB04201D1062605E080
:10124000224EB04201D1072600E00826BE402643C8
:10125000CCF808681E4E34684F689C43FF0300D5E5
:101260001C4334601A4C241D26684F689E43BF03FC
:1012700000D51E432660164E083634684F689C43DE
:10128000FF0200D51C433460114E0C3634684F68A1
:101290009C43BF0200D51C433460521C102AFFF44B
:1012A00045AFBDE8F88F00004438024000300140EF
:1012B000000002400004024000080240000C02400E
:1012C000001002400014024000180240001C0240BE
:1012D000003C01400AB1816170470904FBE700004E
:1012E000014880687047000034000020024881688F
:1012F0000278114481607047340000200B4810B51B
:10130000016841F400710160016841F4806101608D
:10131000016841F480710160032000F06FF8002043
:1013200000F006F800F024F8002010BD003C024058
:1013300070B50D4D04464FF47A712878B1FBF0F08A
:101340000A490968B1FBF0F000F012FB48B9102C13
:1013500007D200222146501E00F030F800206C60B9
:1013600070BD012070BD000034000020400000204E
:101370000A4808B5016841F480410160006800F442
:10138000804000900548001F016841F080510160D5
:10139000006800F08050009008BD00004438024012
:1013A000002809DB00F01F02012191404009800064
:1013B00000F1E020C0F8001170470000F0B40E4BBF
:1013C0001B680C46C3F30223C3F10705042D00D9A3
:1013D0000425191D072901D2002300E0DB1E012688
:1013E00006FA05F1491E214099409E40761E16409E
:1013F0003143F0BC01F0CABA0CED00E0064900F040
:10140000070208684FF6FF03184040EA0220034A2B
:1014100010430860704700000CED00E00000FA0582
:101420002DE9F0470E46050065D0DFF81481D8F8A5
:101430000000F7B200F00F00B04207D288F8007049
:10144000D8F8000000F00F00B04254D128683D4C9D
:10145000810712D5400703D5206840F4E050206092
:101460002878000703D5206840F460402060206899
:10147000A96820F0F000084320602878C0072DD02C
:10148000304968680839012812D0022813D003288F
:1014900011D00968890700292DDA216821F003019C
:1014A00001432160FFF71CFF814641F2883A0EE0BC
:1014B00009688903EFE709688901ECE7FFF710FF86
:1014C000A0EB0901514502D90320BDE8F08720684F
:1014D000696800F00C00B0EB810FEFD1D8F8001074
:1014E000404601F00F01B14207D90770006800F0D3
:1014F0000F00B04201D00120E7E72878400705D56A
:101500002068E96820F4E05008432060287800074C
:1015100006D52068296920F4604040EAC1002060B7
:1015200000F048F82168084AC1F30311515CC84033
:101530000649086006480068FFF7FAFE0020C4E785
:10154000003C024008380240902B00084000002078
:10155000380000200F2202600C4A136803F00303D6
:101560004360136803F0F0038360136803F4E053EF
:10157000C36012684FF4E05303EAD20202610448E8
:10158000006800F00F000860704700000838024053
:10159000003C02400448054900680968044AC1F358
:1015A0008221515CC840704740000020083802404A
:1015B000A02B0008154810B5006810F00C02144864
:1015C00013D04110042A0FD0082A0ED10F4C241F2B
:1015D0002268236802F03F025B0207D52068C0F34F
:1015E0008810A0FB010106E0084610BD2168C1F388
:1015F0008811A1FB00010023FEF7E2FD2168C1F381
:101600000141491C4900B0FBF1F010BD083802400F
:101610000024F4002DE9F84F04006ED02078DFF8A4
:101620003C93C007A9F104054AD009F10400016800
:10163000C1F38101012908D00068C0F381000228AC
:101640000AD1D9F80000400206D52868800337D5B2
:1016500060680028E1D033E06068B0F5803F10D0CA
:10166000B0F5A02F286810D020F4803028602868BA
:1016700020F4802028606068A8B1FFF731FE06469C
:101680000DE0286840F48030F4E740F480202860C2
:10169000F7E700BFFFF724FE801B642873D8286893
:1016A0008003F7D50CE0FFF71BFE064605E000BF00
:1016B000FFF716FE801B6428F0D828688003F7D453
:1016C0002078DFF89C8280074FF0000A3ED5A348BF
:1016D000001D016811F00C0F08D00068C0F38100F4
:1016E00002280BD1D9F80000400207D428688007EF
:1016F00016D5E068012800D112E02BE1E068B8B10E
:101700000120C8F80000FFF7EBFD064605E000BF2A
:10171000FFF7E6FD801B0228C0D828688007F7D5B0
:101720002868216920F0F80040EAC10028600DE037
:10173000C8F800A0FFF7D4FD064604E0FFF7D0FD8F
:10174000801B02281FD828688007F7D4207800075C
:1017500022D5824E83486169703671B101210160E2
:10176000FFF7BEFD074604E0FFF7BAFDC01B0228E5
:1017700009D830688007F7D50EE0C0F800A0FFF761
:10178000AFFD074605E082E0FFF7AAFDC01B022877
:101790007DD830688007F7D42078400768D5DFF817
:1017A000BCB100270BF13C0BDBF80000C0000BD4F0
:1017B000DBF8001041F08051CBF80010DBF800009E
:1017C000012700F080500090674E3068C00510D4AB
:1017D000306840F480703060FFF782FD009005E0D3
:1017E000FFF77EFD0099401A022850D83068C005E6
:1017F000F6D55A4EA0686C3601280FD005283068FF
:1018000010D020F001003060306820F0040030601B
:10181000A068B8B1FFF764FD00900FE0306840F0B9
:101820000100F4E740F004003060F7E7FFF758FDEF
:101830000099411A41F28830814266D830688007A9
:10184000F4D50EE0FFF74CFD009007E0FFF748FDF0
:101850000099411A41F28830814256D83068800799
:10186000F4D42FB1DBF8001021F08051CBF8001038
:10187000A069C8B33949091D0968C1F3810102296A
:101880004AD00228504607D0C8F8600000E03CE08B
:10189000FFF726FD04463BE04746C8F86000FFF727
:1018A0001FFD064605E000BFFFF71AFD801B02285A
:1018B0002BD828688001F7D4D4E907010843A16A2E
:1018C0002A4A490802EB0141626A41EA821108434F
:1018D00094F82C1040EA0161C9F800100120386624
:1018E000FFF7FEFC044606E036E000BFFFF7F8FC19
:1018F000001B022809D828688001F7D52CE000BF1A
:10190000FFF7EEFC001B022802D90320BDE8F88F88
:1019100028688001F4D41FE00128F7D0D9F800002E
:10192000E26900F48001914214D1226A00F03F0183
:1019300091420FD147F6C071626A0140914209D1CC
:10194000A26A00F44031914204D1E16A00F0706073
:10195000884201D00120D9E70020D7E704380240AF
:1019600000004742800E4742007000400000FFFF29
:1019700010B5401EB0F1807F01D3012010BD4FF0A3
:10198000E02460610F21601701F000F80020A061E1
:1019900007202061002010BD7047704710B590F8F7
:1019A0003C20012A22D0012280F83C20CA688C68A1
:1019B00022F4407222434C6822F4806222430C6875
:1019C00022F4006222430C6922F4805222434C69C3
:1019D00022F400522243C969002322F480420A43C0
:1019E00001684A6480F83C30002010BD022010BD20
:1019F00070B590F83C20012A32D0012480F83C4098
:101A0000022280F83D2003685A689D6822F0700623
:101A10000A6832435A60134B02689A4214D0B2F1FA
:101A2000804F11D0104B9A420ED0104B9A420BD0DF
:101A30000F4B9A4208D00F4B9A4205D00E4B9A4258
:101A400002D00E4B9A4204D1496825F08003194315
:101A5000916080F83D40002180F83C10084670BD40
:101A6000022070BD0000014000040040000800405A
:101A7000000C0040000401400040014000180040FC
:101A800010B504460068042200F07BFE2068416C1B
:101A900041F4004141642068816801F00701062992
:101AA00003D0016841F001010160002010BD10B5B4
:101AB000040003D094F83D0010B107E0012010BDF0
:101AC000002084F83C00204600F00CF8022084F846
:101AD0003D00211D206800F0E3FD012084F83D0059
:101AE000002010BD08B50068154988420FD115487F
:101AF000016841F0010101600068002200F001006E
:101B0000009011461920FFF759FC192012E0B0F19E
:101B1000804F13D10B48001F016841F001010160A3
:101B20000068002200F00100009011461C20FFF721
:101B300045FC1C20BDE80840FFF732BC08BD000092
:101B40000000014044380240022180F83D10016845
:101B50008A6802F00702062A03D00A6842F00102EE
:101B60000A60012180F83D10002070470168CA68B2
:101B700042F00102CA600068816801F0070106298D
:101B800003D0016841F0010101600020704770B589
:101B9000044690F83C00012817D0012584F83C50F9
:101BA000022084F83D002068826822F0770222F447
:101BB0007F4282600868502830D00DDC20284DD04C
:101BC00005DC98B310283BD148E0022070BD3028D6
:101BD00044D0402834D139E0602828D0702806D07D
:101BE000B0F5805F2CD0B0F5005F29D10AE0CB685A
:101BF000D1E90121206800F0D1FD2068816841F021
:101C0000770109E0CB68D1E90121206800F0C6FD29
:101C10002068816841F48041816011E0CA684968A8
:101C2000206800F08FFE5021206807E016E0CA68A7
:101C30004968206800F097FE6021206800F0B8FD38
:101C400084F83D50002084F83C0070BDCA684968A3
:101C5000206800F077FE40212068EFE72268014607
:101C60001046EBE7704770B50446006801694FF015
:101C70000005C943890715D4C168C943890711D430
:101C8000E91E0161012020772068806980072046D5
:101C900002D0FFF7E7FF04E000F017F9204600F05C
:101CA00053F9257720680169C943490717D4C168EA
:101CB000C943490713D46FF0040101610220207762
:101CC0002068806910F4407F204602D0FFF7CAFFE9
:101CD00004E000F0FAF8204600F036F92577206895
:101CE0000169C943090716D4C168C943090712D459
:101CF0006FF008010161042020772068C069800727
:101D0000204602D0FFF7AEFF04E000F0DEF82046E8
:101D100000F01AF9257720680169C943C90617D46C
:101D2000C168C943C90613D46FF0100101610820CE
:101D300020772068C06910F4407F204602D0FFF76A
:101D400091FF04E000F0C1F8204600F0FDF825778F
:101D500020680169C943C90708D1C168C943C907D7
:101D600004D1891E0161204600F0F0F82068016965
:101D7000C943090609D4C168C943090605D46FF0EF
:101D8000800101612046FFF707FE20680169C94311
:101D9000490609D4C168C943490605D46FF040011A
:101DA0000161204600F0E6F820680169C943890610
:101DB0000BD4C168C943890607D46FF020010161C3
:101DC0002046BDE87040FFF7E8BD70BD70B586B035
:101DD000044614216846FEF72BFA21492068884200
:101DE0003BD120480024016841F0100101600168E6
:101DF00001F010010591016841F0020101600168E4
:101E000001F002010591016841F0010101600068E3
:101E1000022500F0010005904FF400600090CDE92C
:101E200001540126CDE9034669460F48FFF776F9CC
:101E30004FF4C0400090CDE90154CDE90346694616
:101E40000A48FFF76BF9E8010090CDE90154CDE9AC
:101E5000034669460648FFF761F906B070BD000009
:101E600000000140303802400010024000040240EF
:101E70000000024070B5044690F83C0001280DD0E7
:101E8000012584F83C50022084F83D0042B1042A28
:101E90000AD0082A0CD00C2A11D10DE0022070BD06
:101EA000206800F08DFC0AE0206800F0B9FC06E034
:101EB000206800F0EBFC02E0206800F01BFD84F8D5
:101EC0003D50002084F83C0070BD704710B5040000
:101ED00003D094F83D0010B107E0012010BD0020B0
:101EE00084F83C00204600F00CF8022084F83D0005
:101EF000211D206800F0D4FB012084F83D00002063
:101F000010BD704710B504460068012200F02CFC9B
:101F10000B492068884202D00A49884203D1416CAB
:101F200041F4004141642068816801F007010629FD
:101F300003D0016841F001010160002010BD0000E4
:101F40000000014000040140704700000068B0F14B
:101F5000804F09D105488189491C8181C189491C6B
:101F6000C1810349008848637047000024000020B5
:101F7000000001407047FEE70121084600F0EAB882
:101F80002DE9F05F0AAC94E8E05F1E4CA061A180EF
:101F9000E280E36125816681A781A4F80E80C4F800
:101FA0002090A4F810A0A4F812B0A4F814C0A4F8CB
:101FB00016E000F049F8012020703820A0701420AD
:101FC000FFF79AF8302000F045F90520FFF794F864
:101FD000302000F03FF90120FFF78EF8302000F0AC
:101FE00039F90120FFF788F8382000F033F90F2085
:101FF00000F030F9012000F02DF9BDE8F05F02207B
:10200000FFF77AB80000002010B5094C0122E188E2
:10201000A069FFF75FF90A2000F060F80022E1886C
:10202000A069FFF757F9BDE810403C2000F056B812
:1020300000000020020003488188806900D001224E
:10204000FFF748B90000002000B587B005A9684631
:10205000FFF780FA0398A8B3FFF79CFA5FEA400005
:10206000FEF763F99FED191B53EC112BFEF7EBF80C
:10207000FEF768F917490A6842F002020A60164939
:102080000A6822F010020A600A6822F001020A605F
:102090000A6822F004020A600A6842F008020A6034
:1020A0000D492831401E08600920091D08600A49B1
:1020B000012014310860081F016821F0010101604E
:1020C00007B000BDFFE7FFF765FAC9E78DEDB5A0E2
:1020D000F7C6B03E40380240000400400949401EA7
:1020E000086008481C38016821F0010101600549B9
:1020F0002C390A6842F001020A600168C907FCD065
:10210000704700002C0400400349487820F001008B
:10211000487000F09FB80000000000200349487894
:1021200020F00200487000F095B800000000002088
:1021300070B50646002409E00120FFF77BFF284622
:1021400000F016F8641CE4B2102C02D2355D002DAC
:10215000F2D170BD491E01F00F01012804D041F0F9
:10216000C00000BF00F076B841F08000FAE7000040
:102170002DE9F84F0209364C02F0080302F0040B77
:10218000217802F0020902F0010700F0080A00F0CD
:10219000040600F0020500F00108009301292FD089
:1021A000022952D13A46218A206AFFF793F84A461B
:1021B000618A206AFFF78EF85A46A18A206AFFF7E3
:1021C00089F8E18A009A206AFFF784F8FFF71CFF7C
:1021D0004246218A206AFFF77DF82A46618A206AF2
:1021E000FFF778F83246A18A206AFFF773F8524663
:1021F000E18A206AFFF76EF8BDE8F84FFFF704BFE9
:1022000042462189E069FFF765F82A466189E0695D
:10221000FFF760F83246A189E069FFF75BF85246A4
:10222000E189E069FFF756F83A46218A206AFFF70C
:1022300051F84A46618A206AFFF74CF85A46A18A4B
:10224000206AFFF747F8009AD2E7BDE8F88F000050
:102250000000002010B504460020FFF7EBFE2046EA
:10226000BDE81040FFF784BF7FB5002119480091F9
:1022700001910291164A0391026001244FF4403209
:102280000461C0E90121047680F82010124AC0E9F7
:102290000A210325C561C16080F830404461FEF722
:1022A000E6FACDE90054022469460A480294FEF792
:1022B00035FA0A20CDE9000469460648FEF72EFAF1
:1022C0000B20CDE9000569460248FEF727FA7FBDDD
:1022D00000200140440000200100000F7FB50021D4
:1022E0001948009101910291164A0391026001245C
:1022F0004FF440320461C0E90121047680F82010D7
:10230000124AC0E90A210325C561C16080F8304046
:102310004461FEF7ACFA0C208DE8310069460A48AA
:10232000FEF7FCF90D200090022001906946064856
:10233000FEF7F4F90E20CDE9000569460248FEF7E4
:10234000EDF97FBD002101408C0000200100000F4D
:102350007FB5002418480094019402941549039411
:10236000016001254FF440310561C0E90114057693
:1023700080F820401149C0E90A140326C661C460F0
:1023800080F830504561FEF772FA8DE870006946BA
:102390000948FEF7C3F90224CDE90054694606480E
:1023A000FEF7BCF9CDE9004669460348FEF7B6F9E9
:1023B0007FBD000000220140D40000200100000F7A
:1023C0002DE9F04786B014216846FDF731FF384803
:1023D0000024016841F010010160016801F0100162
:1023E0000591016841F080010160016801F0800100
:1023F0000591016841F004010160016801F00401E8
:102400000591016841F001010160016801F00101DD
:102410000591016841F002010160016801F00201CB
:102420000591016841F0080101600068DFF88480CF
:1024300000F0080005900022FF214046FEF74AFF09
:10244000DFF8749040F60446002231464846FEF715
:1024500041FFDFF868A04FF4784700223946504624
:10246000FEF738FFFF2000900125CDE901546946B1
:1024700040460394FEF752FE0096CDE901546946AA
:1024800048460394FEF74AFE0097CDE90154694699
:1024900050460394FEF742FEF820CDE90004694659
:1024A00050460294FEF73AFE06B0BDE8F087000001
:1024B000303802400010024000040240000C02408C
:1024C00010B596B000240F941094119412941394A4
:1024D0001C2168461494FDF7ABFE202107A8FDF7E8
:1024E000A7FE254823490160A721C0E9011440F255
:1024F000E731C0E903148021C0E90541FFF7D7FAAD
:102500004FF480500F900FA91B48FFF740FB1A486B
:10251000FFF7DCFC2020CDE9130413A91648FFF7D0
:1025200067FA302000906420CDE9010403940494FC
:1025300005940022694610480694FFF79BFC4FF46F
:10254000FA700190042269460B48FFF793FC079448
:1025500078200894CDE909404FF40050CDE90B40B4
:1025600007A905480E94FFF719FA0348FFF72EFC58
:1025700016B010BD000001403001002010B586B03B
:1025800000241248009401940294039404944FF0A0
:102590008041059401605321C0E9011440F2E73104
:1025A000C0E9031480218161FFF781FA4FF4805064
:1025B000009069460548FFF7EAFA2020CDE90404B7
:1025C00004A90248FFF714FA06B010BD70010020FC
:1025D000FEE7704770477047FEF788BE30B593B08E
:1025E00030216846FDF724FE14210CA8FDF720FEDB
:1025F00019480025016841F080510160006800F031
:10260000805011901548016841F4804101600068D4
:10261000022400F4804011900120009000040190F9
:102620008001CDE9064008AA0420A82182E8130011
:102630000B906846FEF7EEFF0CA90F2081E83100F1
:102640004FF4A0500F90E002109005210CA8FEF767
:10265000E7FE13B030BD000040380240007000407B
:102660000548016841F47001016003494FF00060C2
:10267000803908607047000088ED00E00148FFF7EE
:10268000F2BA0000300100200148FFF7ECBA000068
:10269000700100200148FEF70CBB00001C01002067
:1026A000F0B50268254C264D264E274F274B4FF09C
:1026B000804CA04209D0604507D0A84205D0B04266
:1026C00003D0B84201D0984204D122F0700E4A687B
:1026D00042EA0E02A0421BD0604519D0A84217D092
:1026E000B04215D0B84213D0984211D0184DA8422C
:1026F0000ED0184DA8420BD0174DA84208D0174D48
:10270000A84205D0164DA84202D0164DA84203D1CA
:1027100022F44075CA682A434D6922F080022A4398
:1027200002608A68C2620A688262A04201D098424E
:1027300001D10969016301214161F0BD000001403F
:102740000004004000080040000C0040000401406C
:102750000040014000440140004801400018004092
:10276000001C00400020004010B501F01F030121B3
:10277000046A99408C430462016A9A4011430162E1
:1027800010BD10B501F01F030421046A99408C4369
:102790000462016A9A401143016210BD10B5846859
:1027A00042EA032224F47F440A432243826010BD9C
:1027B000826822F070020A4342F00701816070478C
:1027C000F0B5026A22F001020262036A426884697B
:1027D000124E24F073050C682C4323F002058B681D
:1027E0002B430D4DA84201D0B04205D123F008077C
:1027F000CB683B4323F00403A84201D0B04205D18B
:102800004D6922F4407215438A692A43426084610B
:10281000496841630362F0BD0000014000040140CB
:10282000F0B5026A22F010020262026A436884690B
:102830000D6824F4E64444EA05248D6822F0200261
:1028400042EA05120F4D104EA84201D0B04206D107
:10285000CF6822F0800242EA071222F04002A8422A
:1028600001D0B04207D14D6923F4406343EA8503A8
:102870008D6943EA8503436084614968816302622C
:10288000F0BD00000000014000040140F0B5026A04
:1028900022F480720262026A4368C46922F4007200
:1028A00024F073050C68124E2C438D6842EA052211
:1028B0000E4DA84201D0B04206D1CF6822F400628A
:1028C00042EA072222F48062A84201D0B04207D136
:1028D0004D6923F4405343EA05138D6943EA051318
:1028E0004360C4614968C1630262F0BD00000140F9
:1028F0000004014030B5026A22F480520262046A88
:102900004268C3690D6823F4E64343EA05238D68F2
:1029100024F4005444EA0534084DA84202D0084D7E
:10292000A84204D14D6922F4804242EA85124260F5
:10293000C36149680164046230BD000000000140C9
:102940000004014010B5036A046A24F00104046223
:10295000846924F0F00444EA021423F00A020A43D2
:102960008461026210BD10B5036A23F01003036294
:102970008369046A23F4704343EA023224F0A0031B
:1029800043EA01118261016210BDFEE70907090EE9
:10299000002804DB00F1E02080F80014704700F00C
:1029A0000F0000F1E02080F8141D704702E008C815
:1029B000121F08C1002AFAD170477047002001E0B9
:1029C00001C1121F002AFBD1704700002DED028BC0
:1029D0008AB0FEF793FCFFF701FEFFF7F1FC5E48BB
:1029E0000024016841F4800101600068224600F47F
:1029F0008000009021463820FEF7E0FC3820FEF7EA
:102A0000CFFC002211463920FEF7D8FC3920FEF712
:102A1000C7FC002211463A20FEF7D0FC3A20FEF710
:102A2000BFFCFFF7ABFDFFF74BFDFFF71DFCFFF70A
:102A300055FCFFF78DFC4A49009448480194086012
:102A40000846FEF764F90094002269464448019460
:102A5000FEF70DF9102269464148FEF708F90DF11D
:102A6000140C80234022202110208CE80F00082025
:102A70000421CDE9021001200222CDE90002C402A6
:102A8000384B0A46049321463748FFF779FAFFF797
:102A900073FA36A0FFF74CFBFFF736FBFFF73EFB60
:102AA0002F485430FFF750F82D485430FFF75EF8A8
:102AB0002B481430FFF748F8294800211430FFF75D
:102AC00021FA274800211430FEF7DAFF24480421B8
:102AD0001430FFF717FA224804211430FEF7D0FF14
:102AE0001F48D838FDF7B4FF1D4903229431A1F5E2
:102AF000B670FEF723F81A489038FDF7A9FF184979
:102B00000322A031A1F59870FEF718F81448483850
:102B1000FDF79EFF12490322AC31A1F1F400FEF74C
:102B20000DF800210E48FEF73FF910210C48FEF782
:102B30003BF90A4D094F0835104E9FED118B1437A4
:102B40002C60706AFDF7F1FB53EC182BFDF77BFB53
:102B5000FDF7F8FB3860F3E73038024000740040BE
:102B60001C01002000100240000402404E49544560
:102B7000434820547261696E696E6700000001402D
:102B8000000000000000104000061016000610169D
:102B9000000000000000000001020304060708090D
:102BA0000000000001020304C82B00080000002000
:102BB00044000000AC2900080C2C00084400002050
:102BC000B4060000BC290008010F38000000000016
:102BD00000000000000000000000000000000000F5
:102BE000000000000000000000000000960000004F
:102BF00000000000000000000000000001000000D4
:0C2C000010000000000000000024F400A0
:040000050800018965
:00000001FF
