:020000040800F2
:10000000200500209D01000893200008271A000801
:1000100091200008990800083F2400080000000013
:100020000000000000000000000000009720000811
:100030009B08000800000000952000089920000897
:10004000B7010008B7010008B7010008B7010008B0
:10005000B7010008B7010008B7010008B7010008A0
:10006000B7010008B7010008B7010008B701000890
:10007000B7010008B7010008B7010008B701000880
:10008000B7010008B7010008B7010008B701000870
:10009000B7010008B7010008B7010008B701000860
:1000A000B70100083D210008B7010008B7010008AA
:1000B00049210008B7010008B7010008B70100088E
:1000C000B7010008B7010008B7010008B701000830
:1000D000B7010008B7010008B7010008B701000820
:1000E000B7010008B7010008B7010008B701000810
:1000F000B7010008B7010008B7010008B701000800
:10010000B7010008B7010008B7010008B7010008EF
:10011000B7010008B7010008B7010008B7010008DF
:10012000B7010008B7010008B7010008B7010008CF
:10013000B7010008B7010008B7010008B7010008BF
:10014000B7010008B7010008B7010008B7010008AF
:10015000B7010008B7010008B7010008B70100089F
:10016000B7010008B7010008B7010008B70100088F
:10017000B7010008B7010008B7010008000000003F
:10018000B7010008B7010008DFF80CD000F0CCFA86
:1001900000480047652D00082005002006488047DC
:1001A00006480047FEE7FEE7FEE7FEE7FEE7FEE75C
:1001B000FEE7FEE7FEE7FEE72121000889010008CF
:1001C0002DE9F05F0546002092469B46884606468C
:1001D000814640241BE0284641464746224600F01F
:1001E000EFF853465A46C01A914110D311461846AB
:1001F000224600F0D6F82D1A67EB01084F4622463A
:100200000120002100F0CDF817EB00094E41201E1F
:10021000A4F10104DFDC484631462A464346BDE8E6
:10022000F09FD2B201E000F8012B491EFBD27047CB
:100230000022F6E710B513460A4604461946FFF7B2
:10024000F0FF204610BD2DE9FE4F81EA030404F0C3
:10025000004421F0004100944FF0000B23F00043D4
:1002600050EA01045ED052EA03045BD0C3F30A549F
:10027000C1F30A552C44A4F2F3340194A0FB0254B8
:10028000C1F3130141F48011C3F3130343F480134A
:1002900001FB024400FB034E840A970A44EA81549E
:1002A00047EA8357A4FB076802958D0A05FB07857B
:1002B0004FEA932C04FB0C542705029D4FEA065885
:1002C00047EA1637B5EB08056EEB070C870E920E62
:1002D00047EA811742EA8312A7FB0201B6EB0B0142
:1002E00064EB00042B0D43EA0C335E1844EB1C5006
:1002F000DA465146E7FB0201C5F313044FEA0B331C
:1003000043EA14534FEA0432019C43EA0603A4F182
:100310000C040294009CCDE900B400F070F803B026
:10032000BDE8F08F00200146F9E70EB540F23341F9
:1003300002910021CDE900110A460B4600F05FF85A
:1003400003B000BDC1F30A5210B5C1F3130140F26E
:10035000FF3341F480119A4201DA002010BD40F2CF
:1003600033439A42A2F2334203DC524200F028F8AF
:1003700010BD904010BD30B50B4601460020202234
:10038000012409E021FA02F59D4205D303FA02F5A2
:10039000491B04FA02F52844151EA2F10102F1DC02
:1003A00030BD202A04DB203A00FA02F10020704719
:1003B0009140C2F1200320FA03F3194390407047A3
:1003C000202A04DB203A21FA02F00021704721FAAA
:1003D00002F3D040C2F12002914008431946704711
:1003E00010B5141E73F1000408DA401C41F100013D
:1003F00092185B411A4301D120F0010010BD2DE994
:10040000F04D92469B4611B1B1FA81F202E0B0FA8A
:1004100080F220329046FFF7C4FF04460F4640EAC0
:100420000A0041EA0B0153465A46084313D01146CD
:1004300053EA010019D0C8F140025046FFF7C0FF4F
:1004400005460E46504659464246FFF7AAFF084366
:1004500005D0012004E020463946BDE8F08D00209B
:10046000054346EAE0762C4337430A986305E40ADD
:10047000A0EB08000022FD0A44EA47540A3002D5E6
:1004800000200146E9E7010510196941DDE9084549
:1004900000196941BDE8F04DA2E72DE9FE4F804605
:1004A00081EA0300C00F0C46009021F0004123F0C8
:1004B0000045B8EB0200A94105D2404621469046CE
:1004C0001C460B46024623F00040104347D0270D40
:1004D000C7F30A00C3F30A510290401A0190402862
:1004E0006BDAC3F3130040F4801B0098924620B1EE
:1004F0000023D2EB030A63EB0B0B01985946C0F1C2
:1005000040025046FFF74DFF06460D4650465946FD
:10051000019A00F01BF910EB08006141002487EA02
:10052000115284EAE7731A4340D0009A62B3019AE9
:10053000012A4FEA075215DC001B61EB02014FF064
:10054000004202EA0752CDE90042001C41F5801149
:1005500032462B46FFF753FF03B0BDE8F08F40460D
:100560002146F9E7001B61EB0201001C41F58013F5
:1005700000185B412018A2F5001747EB030140EA81
:10058000D570B6196D4111E06D084FEA360645EA9F
:10059000C0754FEA0752001B61EB0201001C41F5D8
:1005A000801149084FEA30000019514132462B466C
:1005B00003B0BDE8F04FFFF713BF009801224000E1
:1005C0000023D0EB020263EBE073009821464FEA70
:1005D000E074B8EB000061EB0401E9E783F000434D
:1005E0005BE781F0004158E72DE9F04D81EA030413
:1005F00004F0004B21F0004514464FF0000A23F0B0
:10060000004150EA050220D054EA01021DD0C5F392
:100610000A570246C5F31303C1F31300C1F30A5688
:1006200040F4801543F48013A7EB0608101BD64650
:1006300008F2FD3873EB050002D308F1010801E070
:1006400092185B41B8F1000F03DA00200146BDE8C3
:10065000F08D00204FF48011064684460EE0171BF3
:1006600073EB050705D3121B63EB050306434CEA46
:10067000010C49084FEA300092185B4150EA01072B
:10068000EDD152EA030012D082EA040083EA0501A8
:10069000084305D0101BAB4106D20122002306E01F
:1006A00000224FF0004302E06FF0010253101AEBFA
:1006B00006004CEB085110EB0A0041EB0B01BDE8C2
:1006C000F04DFFF78DBEC1F30A52C1F3130140F2A2
:1006D000FF3341F480119A4202DA0020014670474C
:1006E00040F233439A42A2F2334202DC5242FFF715
:1006F00067BEFFF756BE000030B5041E71F100045E
:1007000004DB4FF00044404264EB0101141E73F11E
:10071000000405DB1C464FF00043524263EB040328
:10072000994208BF904230BD064C074D06E0E06894
:1007300040F0010394E8070098471034AC42F6D328
:10074000FFF726FD802E0008A02E0008202A06DBD9
:10075000CB17203A41FA02F043EAE07306E041FA8F
:1007600002F3D040C2F1200291400843194670477D
:10077000464910B54A6822F440324A604A684368E4
:100780001A434A6001684A6822F480724A6001682C
:100790004A68036942EA03224A6001684A6822F013
:1007A00040724A6001684A6883681A434A60016877
:1007B0008A6822F400628A6001688A68C3681A4302
:1007C0008A60816A6FF07062D14201688A6822F0A3
:1007D00070628A6001688A680CD0836A1A438A60F2
:1007E00001688A6822F040528A6001688A68C36A98
:1007F0001A4301E022F040528A6001688A6822F0C0
:1008000002028A6001688A68037E42EA43028A60C3
:1008100090F82010002901684A680FD042F4006265
:100820004A6001684A6822F460424A6001684A6886
:10083000174C436A04EB43331A4301E022F400628D
:100840004A600168CA6A22F47002CA620168CA6A10
:10085000838B104C04EB03531A43CA6201688A6805
:1008600022F400728A6001688A6890F8303042EAA7
:1008700043228A6001688A6822F480628A60016883
:100880008A68406942EA8020886010BD00230140E8
:1008900000E0FFFF0000F0FFFEE7704778B500249E
:1008A000009490F83C20012A19D0012280F83C20C5
:1008B0000A6807230568092A13D9EE680A3A02EB89
:1008C000420293409E43EE600B788A680A3B03EB3A
:1008D00043039A400368DD682A43DA6010E002208F
:1008E00078BD2E6902EB420293409E432E610B7845
:1008F0008A6803EB43039A4003681D692A431A611F
:100900004A681F23072A13D205686E6B521E02EB3A
:10091000820293409E436E630B790A885B1E92B2FB
:1009200003EB83039A4003685D6B2A435A6327E015
:1009300005680D2A12D22E6BD21F02EB8202934061
:100940009E432E630B790A88DB1F92B203EB83036D
:100950009A4003681D6B2A431A6311E0EE6A0D3A50
:1009600002EB820293409E43EE620B790A880D3BB4
:1009700092B203EB83039A400368DD6A2A43DA628A
:10098000164B0568144A9D4206D10D68122D03D1FD
:10099000556845F48005556005689D4218D10B687F
:1009A000102B01D0112B13D1536843F40003536073
:1009B000096810290CD10A490A4A0968B1FBF2F109
:1009C00001EB8101490000E0491E00910029FBD1A3
:1009D00080F83C40002078BD002301400020014009
:1009E0004400002040420F000068C06C704770B5A2
:1009F00004004FF0000503D0206C002610B107E082
:100A0000012070BD204600F01DF8666484F83C604B
:100A1000206CC00610D4206C20F4885040F00200F6
:100A200020642046FFF7A4FE6664206C20F00200DC
:100A300040F00100206400E0012584F83C60284675
:100A400070BD000010B586B0044614216846FFF75B
:100A5000EFFB1149206888421CD110480021026830
:100A600042F480720260006800F4807005900B48C8
:100A70001438026842F001020260006800F00100D0
:100A80000590012000900320CDE90101694604484A
:100A900000F090F806B010BD00200140443802403C
:100AA0000000024018B50021009190F83C20012A76
:100AB00007D0012280F83C2002689368DB0702D04F
:100AC00011E0022018BD936843F0010393602A4AA5
:100AD0002A4B1268B2FBF3F202EB420200E0521E14
:100AE0000092002AFBD102689368DB0741D0036CB7
:100AF00040F20164A34343F48073036453685B05CD
:100B000005D5036C23F4005343F480530364036C52
:100B1000DB0404D5436C23F00603436400E0416426
:100B200080F83C1016496FF0220313604968006892
:100B3000CA06144906D088421BD1816811F0405F73
:100B400013D016E08842F8D00F4A904203D1D1F872
:100B50000423D206F1D00D4A90420AD1D1F80413F1
:100B600001F01F011029E8D303E0816841F08041C2
:100B70008160002018BD00004400002040420F00AA
:100B800000230140002001400021014000220140DB
:100B900070B5044600F0F6F80546601C02D0044823
:100BA0000078044400F0EEF8401BA042FAD370BD78
:100BB000380000202DE9F84F00224FF001080325EE
:100BC0004FF00F0E0B6808FA02F42340A3426ED1D7
:100BD0004E68012E05D0022E03D0112E01D0122E08
:100BE00012D186684FEA420C05FA0CF7BE43CF6873
:100BF00007FA0CF7374387604668A6430C79C4F3BD
:100C00000014944034434460C668570005FA07FC5A
:100C10008C6826EA0C06BC403443C4604C68022C45
:100C200001D0122C13D1D40800EB8404A346D4F8CD
:100C3000209054074FEAD46A0EFA0AF629EA060908
:100C40000E6906FA0AF646EA0906CBF8206006683D
:100C50000C7926EA0C0604F00304BC40344304601B
:100C60004C68E40065D5364C266846F4804626601C
:100C7000246822F0030604F480440094314C344488
:100C8000A446D4F808489607370F0EFA07F6B4437F
:100C90002D4EB04201D1002624E02C4EB04201D1AD
:100CA00001261FE02A4EB04202D102261AE040E09F
:100CB000284EB04201D1032614E0274EB04201D1A4
:100CC00004260FE0254EB04201D105260AE0244E4D
:100CD000B04201D1062605E0224EB04201D10726DE
:100CE00000E00826BE402643CCF808681E4E346853
:100CF0004F689C43FF0300D51C4334601A4C241DED
:100D000026684F689E43BF0300D51E432660164EDB
:100D1000083634684F689C43FF0200D51C4334609A
:100D2000114E0C3634684F689C43BF0200D51C43FB
:100D30003460521C102AFFF445AFBDE8F88F000064
:100D400044380240003001400000024000040240EC
:100D500000080240000C0240001002400014024053
:100D600000180240001C0240003C0140426931EA88
:100D7000020200D10904816170470AB181617047A4
:100D80000904FBE701488068704700003800002034
:100D90000248816802781144816070473800002061
:100DA0000B4810B5016841F400710160016841F41D
:100DB00080610160016841F480710160032000F0EE
:100DC0006FF8002000F006F800F024F8002010BDB5
:100DD000003C024070B50D4D04464FF47A712878FE
:100DE000B1FBF0F00A490968B1FBF0F000F012FB2A
:100DF00048B9102C07D200222146501E00F030F8CE
:100E000000206C6070BD012070BD00003800002023
:100E1000440000200A4808B5016841F4804101609F
:100E2000006800F4804000900548001F016841F010
:100E300080510160006800F08050009008BD000003
:100E400044380240002809DB00F01F0201219140D4
:100E50004009800000F1E020C0F800117047000058
:100E6000F0B40E4B1B680C46C3F30223C3F1070515
:100E7000042D00D90425191D072901D2002300E003
:100E8000DB1E012606FA05F1491E214099409E40CD
:100E9000761E16403143F0BC01F0E6BA0CED00E0DE
:100EA000064900F0070208684FF6FF03184040EAC1
:100EB0000220034A10430860704700000CED00E078
:100EC0000000FA052DE9F0470E46050065D0DFF871
:100ED0001481D8F80000F7B200F00F00B04207D23A
:100EE00088F80070D8F8000000F00F00B04254D12C
:100EF00028683D4C810712D5400703D5206840F48F
:100F0000E05020602878000703D5206840F4604056
:100F100020602068A96820F0F0000843206028784D
:100F2000C0072DD0304968680839012812D002283E
:100F300013D0032811D00968890700292DDA216808
:100F400021F0030101432160FFF71CFF814641F2BC
:100F5000883A0EE009688903EFE709688901ECE740
:100F6000FFF710FFA0EB0901514502D90320BDE8AE
:100F7000F0872068696800F00C00B0EB810FEFD1BA
:100F8000D8F80010404601F00F01B14207D90770B0
:100F9000006800F00F00B04201D00120E7E7287898
:100FA000400705D52068E96820F4E0500843206038
:100FB0002878000706D52068296920F4604040EAB7
:100FC000C100206000F048F82168084AC1F303110D
:100FD000515CC8400649086006480068FFF7FAFE01
:100FE0000020C4E7003C024008380240682E000898
:100FF000440000203C0000200F2202600C4A1368CD
:1010000003F003034360136803F0F0038360136885
:1010100003F4E053C36012684FF4E05303EAD202D2
:1010200002610448006800F00F000860704700008B
:1010300008380240003C024004480549006809683D
:10104000044AC1F38221515CC8407047440000202B
:1010500008380240782E0008154810B5006810F0D6
:101060000C02144813D04110042A0FD0082A0ED1C4
:101070000F4C241F2268236802F03F025B0207D551
:101080002068C0F38810A0FB010106E0084610BDEF
:101090002168C1F38811A1FB00010023FFF790F83C
:1010A0002168C1F30141491C4900B0FBF1F010BDBA
:1010B000083802400024F4002DE9F84F04006ED0F7
:1010C0002078DFF83C93C007A9F104054AD009F164
:1010D00004000168C1F38101012908D00068C0F350
:1010E000810002280AD1D9F80000400206D52868FC
:1010F000800337D560680028E1D033E06068B0F540
:10110000803F10D0B0F5A02F286810D020F4803098
:101110002860286820F4802028606068A8B1FFF764
:1011200031FE06460DE0286840F48030F4E740F4D4
:1011300080202860F7E700BFFFF724FE801B6428AB
:1011400073D828688003F7D50CE0FFF71BFE06462E
:1011500005E000BFFFF716FE801B6428F0D8286862
:101160008003F7D42078DFF89C8280074FF0000AD4
:101170003ED5A348001D016811F00C0F08D000688F
:10118000C0F3810002280BD1D9F80000400207D437
:101190002868800716D5E068012800D112E02BE10D
:1011A000E068B8B10120C8F80000FFF7EBFD064683
:1011B00005E000BFFFF7E6FD801B0228C0D82868C5
:1011C0008007F7D52868216920F0F80040EAC100BF
:1011D00028600DE0C8F800A0FFF7D4FD064604E043
:1011E000FFF7D0FD801B02281FD828688007F7D49E
:1011F0002078000722D5824E83486169703671B12C
:1012000001210160FFF7BEFD074604E0FFF7BAFDCC
:10121000C01B022809D830688007F7D50EE0C0F857
:1012200000A0FFF7AFFD074605E082E0FFF7AAFD4B
:10123000C01B02287DD830688007F7D4207840078B
:1012400068D5DFF8BCB100270BF13C0BDBF80000E0
:10125000C0000BD4DBF8001041F08051CBF8001037
:10126000DBF80000012700F080500090674E3068E6
:10127000C00510D4306840F480703060FFF782FD04
:10128000009005E0FFF77EFD0099401A022850D833
:101290003068C005F6D55A4EA0686C3601280FD0CC
:1012A0000528306810D020F001003060306820F050
:1012B00004003060A068B8B1FFF764FD00900FE053
:1012C000306840F00100F4E740F004003060F7E7D8
:1012D000FFF758FD0099411A41F28830814266D8E3
:1012E00030688007F4D50EE0FFF74CFD009007E072
:1012F000FFF748FD0099411A41F28830814256D8E3
:1013000030688007F4D42FB1DBF8001021F0805151
:10131000CBF80010A069C8B33949091D0968C1F3A9
:10132000810102294AD00228504607D0C8F860003F
:1013300000E03CE0FFF726FD04463BE04746C8F8E6
:101340006000FFF71FFD064605E000BFFFF71AFD2E
:10135000801B02282BD828688001F7D4D4E9070124
:101360000843A16A2A4A490802EB0141626A41EA3C
:101370008211084394F82C1040EA0161C9F800106A
:1013800001203866FFF7FEFC044606E036E000BFA9
:10139000FFF7F8FC001B022809D828688001F7D560
:1013A0002CE000BFFFF7EEFC001B022802D903204F
:1013B000BDE8F88F28688001F4D41FE00128F7D039
:1013C000D9F80000E26900F48001914214D1226A48
:1013D00000F03F0191420FD147F6C071626A0140AF
:1013E000914209D1A26A00F44031914204D1E16AEC
:1013F00000F07060884201D00120D9E70020D7E7D3
:101400000438024000004742800E4742007000400E
:101410000000FFFF10B5401EB0F1807F01D3012016
:1014200010BD4FF0E02460610F21601701F01CF83F
:101430000020A06107202061002010BD7047704788
:1014400010B590F83C20012A22D0012280F83C20DF
:10145000CA688C6822F4407222434C6822F480628D
:1014600022430C6822F4006222430C6922F4805269
:1014700022434C6922F400522243C969002322F41A
:1014800080420A4301684A6480F83C30002010BD65
:10149000022010BD70B590F83C20012A32D0012402
:1014A00080F83C40022280F83D2003685A689D681D
:1014B00022F070060A6832435A60134B02689A425F
:1014C00014D0B2F1804F11D0104B9A420ED0104B75
:1014D0009A420BD00F4B9A4208D00F4B9A4205D03C
:1014E0000E4B9A4202D00E4B9A4204D1496825F025
:1014F00080031943916080F83D40002180F83C1042
:10150000084670BD022070BD00000140000400408C
:1015100000080040000C0040000401400040014071
:101520000018004010B504460068042200F083FE55
:101530002068416C41F4004141642068816801F0F9
:101540000701062903D0016841F001010160002074
:1015500010BD10B5040003D094F83D0010B107E0B1
:10156000012010BD002084F83C00204600F00CF85B
:10157000022084F83D00211D206800F0EBFD0120D1
:1015800084F83D00002010BD08B500681549884268
:101590000FD11548016841F0010101600068002287
:1015A00000F00100009011461920FFF759FC1920A6
:1015B00012E0B0F1804F13D10B48001F016841F0D9
:1015C000010101600068002200F001000090114656
:1015D0001C20FFF745FC1C20BDE80840FFF732BC8B
:1015E00008BD00000000014044380240022180F89C
:1015F0003D1001688A6802F00702062A03D00A68D3
:1016000042F001020A60012180F83D10002070477D
:101610000168CA6842F00102CA600068816801F08E
:101620000701062903D0016841F001010160002093
:10163000704770B5044690F83C00012817D001258A
:1016400084F83C50022084F83D002068826822F033
:10165000770222F47F4282600868502830D00DDC87
:1016600020284DD005DC98B310283BD148E002205B
:1016700070BD302844D0402834D139E0602828D0CB
:10168000702806D0B0F5805F2CD0B0F5005F29D16E
:101690000AE0CB68D1E90121206800F0D9FD20687B
:1016A000816841F0770109E0CB68D1E90121206828
:1016B00000F0CEFD2068816841F48041816011E036
:1016C000CA684968206800F097FE5021206807E04A
:1016D00016E0CA684968206800F09FFE6021206813
:1016E00000F0C0FD84F83D50002084F83C0070BD3F
:1016F000CA684968206800F07FFE40212068EFE753
:10170000226801461046EBE7704770B50446006852
:1017100001694FF00005C943890715D4C168C94361
:10172000890711D4E91E01610120207720688069B2
:101730008007204602D0FFF7E7FF04E000F017F92A
:10174000204600F053F9257720680169C94349070D
:1017500017D4C168C943490713D46FF0040101616C
:10176000022020772068806910F4407F204602D054
:10177000FFF7CAFF04E000F0FAF8204600F036F95F
:10178000257720680169C943090716D4C168C94390
:10179000090712D46FF00801016104202077206846
:1017A000C0698007204602D0FFF7AEFF04E000F0DA
:1017B000DEF8204600F01AF9257720680169C94350
:1017C000C90617D4C168C943C90613D46FF0100104
:1017D0000161082020772068C06910F4407F20460E
:1017E00002D0FFF791FF04E000F0C1F8204600F0BE
:1017F000FDF8257720680169C943C90708D1C16888
:10180000C943C90704D1891E0161204600F0F0F8E0
:1018100020680169C943090609D4C168C94309069A
:1018200005D46FF0800101612046FFF707FE2068B4
:101830000169C943490609D4C168C943490605D4A9
:101840006FF040010161204600F0ECF8206801696A
:10185000C94389060BD4C168C943890607D46FF010
:10186000200101612046BDE87040FFF7E8BD70BD72
:1018700070B586B0044614216846FEF7D9FC2149AC
:10188000206888423BD120480024016841F01001C3
:101890000160016801F010010591016841F0020149
:1018A0000160016801F002010591016841F0010148
:1018B00001600068022500F0010005904FF400600F
:1018C0000090CDE901540126CDE9034669460F4851
:1018D000FFF770F94FF4C0400090CDE90154CDE915
:1018E000034669460A48FFF765F9E8010090CDE92B
:1018F0000154CDE9034669460648FFF75BF906B097
:1019000070BD00000000014030380240001002406D
:10191000000402400000024070B5044690F83C000C
:1019200001280DD0012584F83C50022084F83D00A8
:1019300042B1042A0AD0082A0CD00C2A11D10DE099
:10194000022070BD206800F095FC0AE0206800F0DD
:10195000C1FC06E0206800F0F3FC02E0206800F023
:1019600023FD84F83D50002084F83C0070BD704792
:1019700010B5040003D094F83D0010B107E0012039
:1019800010BD002084F83C00204600F00CF8022036
:1019900084F83D00211D206800F0DCFB012084F864
:1019A0003D00002010BD704710B5044600680122BC
:1019B00000F034FC0B492068884202D00A49884272
:1019C00003D1416C41F4004141642068816801F019
:1019D0000701062903D0016841F0010101600020E0
:1019E00010BD0000000001400004014070470000ED
:1019F00010B50068B0F1804F0DD1074C0749A089A0
:101A0000401CA081E089401CE08120884863044894
:101A1000FEF7EAFF208210BD2400002000000140F4
:101A2000480000207047FEE72DE9F0473F4844F6A4
:101A3000206501683E4C09074FF001064FF0000792
:101A400008D40121491CA942FCD30168090708D424
:101A5000668006E06188012903D1678021886431AE
:101A6000218080460068DFF8CC90C00609D40120B0
:101A7000401CA842FCD3D8F80000C0060CD4A680B5
:101A80000AE0A088012807D18103A7804846FFF714
:101A90006DF9208864382080D8F80000800609D4C9
:101AA0000120401CA842FCD3D8F80000800609D4CD
:101AB000E68007E0E088012804D14103E78048463A
:101AC000FFF754F9D8F80000400609D40120401C63
:101AD000A842FCD3D8F8000040060CD426810AE0C6
:101AE0002089012807D1010327814846FFF73EF9E5
:101AF000208864302080D8F800104046090609D4B8
:101B00000121491CA942FCD30068000600D466816B
:101B1000BDE8F08760890128FAD1C1026781484693
:101B2000FFF724F9208864382080F1E7100C024088
:101B300024000020000C02400121084600F0F4B807
:101B40002DE9F05F0AAC94E8E05F1E4CA061A18033
:101B5000E280E36125816681A781A4F80E80C4F844
:101B60002090A4F810A0A4F812B0A4F814C0A4F80F
:101B700016E000F049F8012020703820A0701420F1
:101B8000FFF706F8302000F04FF90520FFF700F8C6
:101B9000302000F049F90120FEF7FAFF302000F074
:101BA00043F90120FEF7F4FF382000F03DF90F2043
:101BB00000F03AF9012000F037F9BDE8F05F0220AB
:101BC000FEF7E6BF0000002010B5094C0122E188B5
:101BD000A069FFF7D2F80A2000F060F80022E1883F
:101BE000A069FFF7CAF8BDE810403C2000F056B8E5
:101BF00000000020020003488188806900D0012293
:101C0000FFF7BBB80000002000B587B005A9684603
:101C1000FFF7F2F90398A8B3FFF70EFA5FEA400066
:101C2000FEF783FB9FED191B53EC112BFEF70BFB0B
:101C3000FEF788FB17490A6842F002020A6016495B
:101C40000A6822F010020A600A6822F001020A60A3
:101C50000A6822F004020A600A6842F008020A6078
:101C60000D492831401E08600920091D08600A49F5
:101C7000012014310860081F016821F00101016092
:101C800007B000BDFFE7FFF7D7F9C9E78DEDB5A0B5
:101C9000F7C6B03E40380240000400400949401EEB
:101CA000086008481C38016821F0010101600549FD
:101CB0002C390A6842F001020A600168C907FCD0A9
:101CC000704700002C04004010B5012000F0ACF873
:101CD000BDE810400320FEF75BBF000003494878D1
:101CE00020F00100487000F09FB8000000000020C4
:101CF0000349487820F00200487000F095B80000D1
:101D00000000002070B50646002409E00120FFF71E
:101D100071FF284600F016F8641CE4B2102C02D2C1
:101D2000355D002DF2D170BD491E01F00F01012873
:101D300004D041F0C00000BF00F076B841F0800050
:101D4000FAE700002DE9F84F0209364C02F00803CB
:101D500002F0040B217802F0020902F0010700F002
:101D6000080A00F0040600F0020500F001080093E4
:101D700001292FD0022952D13A46218A206AFEF742
:101D8000FCFF4A46618A206AFEF7F7FF5A46A18A9D
:101D9000206AFEF7F2FFE18A009A206AFEF7EDFF63
:101DA000FFF712FF4246218A206AFEF7E6FF2A4625
:101DB000618A206AFEF7E1FF3246A18A206AFEF7B7
:101DC000DCFF5246E18A206AFEF7D7FFBDE8F84FF4
:101DD000FFF7FABE42462189E069FEF7CEFF2A46A8
:101DE0006189E069FEF7C9FF3246A189E069FEF723
:101DF000C4FF5246E189E069FEF7BFFF3A46218AF7
:101E0000206AFEF7BAFF4A46618A206AFEF7B5FFEC
:101E10005A46A18A206AFEF7B0FF009AD2E7BDE8D1
:101E2000F88F00000000002010B504460020FFF7E6
:101E3000E1FE2046BDE81040FFF784BF7FB50024D7
:101E400011480094019402940E49039401604FF4E8
:101E50008031C0E901140461047680F820400B4908
:101E6000C0E90A140125C561C46080F830404561AD
:101E7000FEF7BDFDCDE90045694603480294FEF733
:101E80000DFD7FBD00200140480000200100000F33
:101E90002DE9F04786B014216846FEF7C9F93448A9
:101EA0000024016841F010010160016801F0100197
:101EB0000591016841F080010160016801F0800135
:101EC0000591016841F001010160016801F0010123
:101ED0000591016841F002010160016801F0020111
:101EE0000591016841F0080101600068DFF8848015
:101EF00000F0080005900022FF214046FEF73DFF5C
:101F0000DFF8749040F60446002231464846FEF75A
:101F100034FFDFF868A04FF4784700223946504676
:101F2000FEF72BFFFF2000900125CDE90154694603
:101F300040460394FEF73EFE0096CDE90154694603
:101F400048460394FEF736FE0097CDE901546946F2
:101F500050460394FEF72EFEF820CDE900046946B2
:101F600050460294FEF726FE06B0BDE8F08700005A
:101F7000303802400010024000040240000C0240D1
:101F800010B596B000240F941094119412941394E9
:101F90001C2168461494FEF74BF9202107A8FEF790
:101FA00047F9254823490160A721C0E9011440F2FF
:101FB000E731C0E903148021C0E90541FFF7C9FA00
:101FC0004FF480500F900FA91B48FFF732FB1A48BF
:101FD000FFF7CEFC2020CDE9130413A91648FFF724
:101FE00059FA302000906420CDE901040394049450
:101FF00005940022694610480694FFF78DFC4FF4C3
:10200000FA700190042269460B48FFF785FC07949B
:1020100078200894CDE909404FF40050CDE90B40F9
:1020200007A905480E94FFF70BFA0348FFF720FCB9
:1020300016B010BD000001409000002010B586B021
:1020400000241248009401940294039404944FF0E5
:102050008041059401605321C0E9011440F2E73149
:10206000C0E9031480218161FFF773FA4FF48050B7
:10207000009069460548FFF7DCFA2020CDE904040A
:1020800004A90248FFF706FA06B010BDD0000020F0
:10209000FEE7704770477047FEF77ABE30B593B0E1
:1020A00030216846FEF7C4F814210CA8FEF7C0F8EA
:1020B00019480025016841F080510160006800F076
:1020C000805011901548016841F48041016000681A
:1020D000022400F48040119001200090000401903F
:1020E0008001CDE9064008AA0420A82182E8130057
:1020F0000B906846FEF7E0FF0CA90F2081E8310045
:102100004FF4A0500F90E002109005210CA8FEF7AC
:10211000D9FE13B030BD00004038024000700040CE
:102120000548016841F47001016003494FF0006007
:10213000803908607047000088ED00E00148FFF733
:10214000E4BA0000900000200148FFF7DEBA00006A
:10215000D0000020F0B50268254C264D264E274FB2
:10216000274B4FF0804CA04209D0604507D0A842D1
:1021700005D0B04203D0B84201D0984204D122F039
:10218000700E4A6842EA0E02A0421BD0604519D088
:10219000A84217D0B04215D0B84213D0984211D0FF
:1021A000184DA8420ED0184DA8420BD0174DA8428A
:1021B00008D0174DA84205D0164DA84202D0164DA2
:1021C000A84203D122F44075CA682A434D6922F01F
:1021D00080022A4302608A68C2620A688262A04260
:1021E00001D0984201D10969016301214161F0BD2B
:1021F000000001400004004000080040000C0040C6
:1022000000040140004001400044014000480140FA
:1022100000180040001C00400020004010B501F0F4
:102220001F030121046A99408C430462016A9A40A9
:102230001143016210BD10B501F01F030421046AAF
:1022400099408C430462016A9A401143016210BDB7
:1022500010B5846842EA032224F47F440A432243EF
:10226000826010BD826822F070020A4342F00701CA
:1022700081607047F0B5026A22F001020262036ACF
:1022800042688469124E24F073050C682C4323F0D5
:1022900002058B682B430D4DA84201D0B04205D1F9
:1022A00023F00807CB683B4323F00403A84201D086
:1022B000B04205D14D6922F4407215438A692A4320
:1022C00042608461496841630362F0BD00000140DF
:1022D00000040140F0B5026A22F010020262026AB4
:1022E000436884690D6824F4E64444EA05248D6853
:1022F00022F0200242EA05120F4D104EA84201D0F2
:10230000B04206D1CF6822F0800242EA071222F0E2
:102310004002A84201D0B04207D14D6923F4406386
:1023200043EA85038D6943EA850343608461496814
:1023300081630262F0BD0000000001400004014022
:10234000F0B5026A22F480720262026A4368C469CC
:1023500022F4007224F073050C68124E2C438D6831
:1023600042EA05220E4DA84201D0B04206D1CF6804
:1023700022F4006242EA072222F48062A84201D0DD
:10238000B04207D14D6923F4405343EA05138D69E8
:1023900043EA05134360C4614968C1630262F0BD4A
:1023A000000001400004014030B5026A22F480526E
:1023B0000262046A4268C3690D6823F4E64343EA93
:1023C00005238D6824F4005444EA0534084DA842DE
:1023D00002D0084DA84204D14D6922F4804242EA5D
:1023E00085124260C36149680164046230BD000027
:1023F000000001400004014010B5036A046A24F0A3
:1024000001040462846924F0F00444EA021423F015
:102410000A020A438461026210BD10B5036A23F008
:10242000100303628369046A23F4704343EA0232AF
:1024300024F0A00343EA01118261016210BDFEE7AE
:102440000FB4084B10B504A902AA039800F0EEF8E7
:10245000044602A9002000F080FC204610BC5DF874
:1024600014FB00005B2D00080907090E002804DB9F
:1024700000F1E02080F80014704700F00F0000F138
:10248000E02080F8141D704702E008C8121F08C140
:10249000002AFAD170477047002001E001C1121FE5
:1024A000002AFBD1704700002DE9FF5F82B00021B8
:1024B000DDE90430020DDDF840B0034318D044F6E6
:1024C0001050A2F2FF3242431514119801281FD078
:1024D000A5EB0B00401C5FEA000A4FF000064E4FD0
:1024E000DFF83891B046504615D5CAF1000413E024
:1024F000119801244AA3012801D16FEA0B01029827
:10250000119AC0E90031C0E9024206B0BDE8F09F6F
:10251000CBF10000DFE704460021404A491842EBB6
:102520000450CDE9001012E0E00707D032463B46E8
:1025300040464946FDF787FE8046894632463B467F
:1025400010461946FDF77FFE06460F466410002C24
:10255000EAD1DDE90401DDE90023BAF1000F06DA72
:10256000FDF771FE42464B46FDF76DFE05E0FEF7B6
:102570003BF842464B46FEF737F804460E4600222B
:10258000284BFEF7B9F803D84FF0FF30014607E0BB
:102590000022254B20463146FDF77FFFFEF793F8DA
:1025A000102409E0002C0ADB0A220023FDF708FEB4
:1025B000039B30321A55641E50EA0102F2D1641CAA
:1025C000039AC4F111031444119A012A03D0012281
:1025D00008430DD10AE0084304D000204FF0110B4E
:1025E000119072E7A3EB0B056D1E0DE05B4504DD5A
:1025F0004FF0000205F1010504E003DA4FF000029C
:10260000A5F10105002AECD002981199C0E9023128
:10261000C0E9004579E70000000014400000F03FE9
:10262000300000000000F0430000E03F2DE9FF4FC4
:1026300095B09B468946064600250FE2252877D1AE
:1026400000242746F84A0121059400E0044316F8C7
:10265000013F203B01FA03F01042F7D130782A28DD
:1026600011D06FF02F033078A0F13002092A16D86C
:10267000059A44F0020402EB820203EB420210448A
:10268000761C0590EFE759F8042B0592002A03DA2F
:10269000504244F40054059044F00204761C307813
:1026A0002E2816D116F8010F44F004042A280DD064
:1026B0006FF02F023078A0F13003092B09D807EB17
:1026C000870302EB4303C718761CF3E759F8047B32
:1026D000761C30786C280FD006DC4C2817D0682880
:1026E0000DD06A2814D104E0742810D07A280FD1B4
:1026F0000DE044F400140AE044F4801401E044F4D2
:1027000040147278824202D104F58014761C761C43
:10271000307866280BD013DC582877D009DC0028E5
:1027200075D04528F6D04628F4D047281AD19DE127
:1027300018E0632835D0642879D0652812D195E156
:10274000702873D008DC6728F1D069286FD06E2814
:102750000DD06F2806D1B5E073282CD0752875D020
:10276000782874D05A46179990476D1C75E1C4F3C8
:102770000250022809D003280DD0D9F800100428EF
:102780000DD00D6009F1040967E1D9F80010EA17CE
:10279000C1E90052F6E7D9F800100D80F2E70D709C
:1027A000F0E719F8041B8DF8001000208DF80100E7
:1027B000EA46012003E059F804AB4FF0FF3061070F
:1027C0004FF0000102D40DE008F101018846B94242
:1027D0000FDA8045F8DB1AF808100029F4D108E078
:1027E00008F1010188468142FADB1AF80810002935
:1027F000F6D105985B46A0EB080721463846179AA4
:1028000000F094FA284400EB080507E04DE029E1C8
:102810000DE01AF8010B5A4617999047B8F10108D4
:10282000F7D25B4621463846179A13E142E00A2266
:102830000092C4F302524FF0000A022A08D059F85D
:1028400004CB032A4FEAEC710AD00DE029E02AE01C
:1028500009F1070121F00702F2E802C1914609E0FF
:102860000FFA8CFC4FEAEC71042A03D14FFA8CFC6E
:102870004FEAEC71002907DA0A460021DCF1000C6E
:1028800061EB02012D2202E0220504D52B228DF8F6
:102890000420012203E0E20701D02022F7E790465E
:1028A00059E00A2102E010220DE010214FF0000A49
:1028B00000910BE010224FF0000A44F004040827B6
:1028C000009203E008224FF0000A0092C4F3025283
:1028D000022A05D059F804CB0021032A08D009E0C8
:1028E00009F1070121F00702F2E802C1914605E073
:1028F0001FFA8CFC042A01D10CF0FF0C4FF00008E9
:10290000220728D5702806D0009B83F0100353EAD5
:102910000A0305D00EE040228DF80420012208E0D1
:102920005CEA010206D030228DF804208DF8050003
:1029300002229046009B83F0080353EA0A030AD15F
:102940005CEA010201D1620705D530228DF804202E
:102950004FF001087F1E582804D034A003900EA821
:1029600002900DE036A0F9E753466046009AFDF765
:1029700027FC84460398825C0298401E02900270F5
:102980005CEA0100F0D1029806A9081A00F1200AB9
:10299000600702D524F4803400E00127574502DDAA
:1029A000A7EB0A0000E0002000EB0A010090059868
:1029B0004144401A0590E00306D45B462146179A2D
:1029C000059800F0B3F90544002706E001A85A462F
:1029D000C05D179990476D1C7F1C4745F6DBE003EF
:1029E0000CD55B462146179A059800F09FF90544DF
:1029F00004E030205A46179990476D1C0099481EF4
:102A000000900029F5DC08E0029802995A46007807
:102A1000491C0291179990476D1CBAF10001AAF167
:102A2000010AF1DC65E10000092801003031323390
:102A300034353637383961626364656600000000FA
:102A400030313233343536373839414243444546E4
:102A50000000000000F058F90544761C307800288A
:102A60007FF4ECAD19B02846BDE8F08F620700D4C2
:102A7000062709F1070222F0070CFCE80223E146D1
:102A800003F000485FEA080C02D00FF2702C0DE052
:102A90005FEA045C02D50FF2682C07E05FEAC47CB1
:102AA00002D00FF2602C01E0AFF2700C4FF0FF3853
:102AB00023F00043CDF850C065280CD006DC452833
:102AC00009D046281DD047283DD13DE0662818D0C2
:102AD00067287ED138E00021112F01DB112000E0B2
:102AE000781CCDE9000106A90EA8FFF7DDFCDDE9A1
:102AF0000F010E9A03910021009207F1010A04913F
:102B00004DE04FF000400097CDE9011006A90EA856
:102B1000FFF7CAFCDDE90F0203920E9B1199002218
:102B2000DDF80CA00093049211B9791C00EB010AA6
:102B3000B7EB0A0004D4C0F1FF3007F1010A04909A
:102B4000AAEB0700019044E0012F00DA01270021E1
:102B5000112F01DD112000E03846CDE9000106A962
:102B60000EA8FFF7A1FCDDE90F010E9A03910021E9
:102B700004910092BA4621070CD40399514500DA1A
:102B80008A46BAF1010F05DD009AAAF10101515CF4
:102B9000302908D0B84202DA10F1040F06DA012118
:102BA000CDE9011015E0AAF10101E9E7002805DCF3
:102BB000049901440491AAEB000102E0411C514533
:102BC00000DD8A460499401A401C01904FF00040F5
:102BD0000290200704D40198504501DBCDF8048011
:102BE00000208DF84F0002980DF14F07B0F1004F13
:102BF00025D02B200E9002984FF0020800280CDA06
:102C0000404202902D200E9007E00A210298FDF725
:102C1000B2FB3031029007F8011DB8F10001A8F1B4
:102C20000108F2DC02980028EFD1791E0E98087096
:102C3000307800F0200040F0450007F8020D12A89F
:102C4000C01B00F107081498007800B1012000EBC8
:102C50000A01019801EBE07105984144401A401EB9
:102C60000590E00306D45B462146179A059800F0CC
:102C70005DF805441498007818B15A4617999047A2
:102C80006D1CE00324D55B462146179A059800F099
:102C90004DF805441CE00498002807DBDDE903013A
:102CA000884203DD0098405C179901E017993020B5
:102CB0005A469047049805F10105401C049001987C
:102CC000401E019004D12E205A46179990476D1C42
:102CD000BAF10001AAF1010ADDDC05E017F8010BE9
:102CE0005A46179990476D1CB8F10001A8F10108E8
:102CF000F4DC5B462146179A0598ABE62D000000F0
:102D00002B000000200000002DE9F04104460025C2
:102D10001E461746880404D405E039462020B047F3
:102D20006D1C641EF9D52846BDE8F0812DE9F041FF
:102D3000044600251E469046C80301D5302700E012
:102D40002027880404D505E041463846B0476D1C6D
:102D5000641EF9D52846BDE8F0810A68531C0B6053
:102D6000107070478AB0FEF71BF8FFF797F9FFF76E
:102D70008FF8FFF763F9FFF703F9FFF75FF80DF13D
:102D8000140C80234022202110208CE80F00082002
:102D90000421CDE9021002220120CDE900020A46F9
:102DA000244BC10204932448FEF7CAFEFEF7C4FE7A
:102DB00022A0FEF7A7FFFEF791FFFEF799FF234839
:102DC000FEF714FC2148FEF723FC20484038FEF7AC
:102DD0000DFC1E4800214038FEF7E6FD1B4800218F
:102DE0004038FEF79FFB194804214038FEF7DCFD10
:102DF000164804214038FEF795FB14488838FDF743
:102E000051FE134C002500BFFEF70EFEE08964283A
:102E1000FAD1E581FEF758FF0C48E38922880DA11D
:102E20004030FFF70DFBFEF787FE08484030FEF705
:102E300069FFE9E700100240000402404E49544592
:102E4000434820547261696E696E6700D0000020AB
:102E5000240000205B25352E30645D2C205B253559
:102E60002E30645D00000000000000000000000043
:102E70000102030406070809000000000102030420
:102E8000A02E000800000020480000008824000850
:102E9000E82E000848000020D8040000982400080C
:102EA000010F3800000000000000000000000000DA
:102EB0000000000000000000000000000000000012
:102EC000000000009600000000000000000000006C
:102ED00000000000000000000100000010000000E1
:082EE000000000000024F400D2
:040000050800018965
:00000001FF
